034072259003927199001010000C+32900-097033SY-SA+0168DFW  V0202805N005252200059N0320005N1+01005-00565102205ADDAA101000095AA206000091AG10000GA1999+076205005GF100005999001999999001991KA1120M+01221KA2180N+00061MA1102201100025MD1110151+9999MW1001REMSYN029333   10122 20006 555   90100AWY018CI S/ 115 1002 54?EQDN01 00000JPWTH 0QNNE81 0 00000G21U0 99999H11 0 32250K21 0 00022L21 0 02000M11 0 29535N21 0 00000Q21 0 10220S21 0 00050V11 0 00000X21 0 28010
021672259003927199001010100C+32900-097033SAO  +0168DFW  V0202805N004652200059N0320005N1+00895-00615102305ADDAA101000095AG10999GF100005999999999999999999MA1102301100125MW1001EQDQ01+999990APOSP N01 00000JPWTH 0QNNE81 0 00099G21U0 99999K21 0 00021L21 0 02000M11 0 29565N21 0 00000Q21 0 10230S21 0 00048V11 0 00000X21 0 28009
021672259003927199001010200C+32900-097033SAO  +0168DFW  V0202605N005252200059N0320005N1+00785-00565102315ADDAA101000095AG10999GF100005999999999999999999MA1102301100125MW1001EQDQ01+999990APOSP N01 00000JPWTH 0QNNE81 0 00099G21U0 99999K21 0 00022L21 0 02000M11 0 29565N21 0 00000Q21 0 10231S21 0 00046V11 0 00000X21 0 26010
025972259003927199001010300C+32900-097033SAO  +0168DFW  V0202405N005252200059N0320005N1+00725-00505102345ADDAA101000095AG10000GF100005999999999999999999MA1102341100155MD1310141+9999MW1001REMAWY004314?EQDQ01+999990APOSP Q02  00003PRCP99N01 00000JPWTH 0QNNE81 0 00099G21U0 99999K21 0 00023L21 0 02000M11 0 29575N21 0 00000Q21 0 10234S21 0 00045V11 0 00000X21 0 24010
021672259003927199001010400C+32900-097033SAO  +0168DFW  V0202305N005752200059N0320005N1+00615-00445102385ADDAA101000095AG10999GF100005999999999999999999MA1102371100195MW1001EQDQ01+999990APOSP N01 00000JPWTH 0QNNE81 0 00099G21U0 99999K21 0 00024L21 0 02000M11 0 29585N21 0 00000Q21 0 10238S21 0 00043V11 0 00000X21 0 23011
025872259003927199001010500C+32900-097033SAO  +0168DFW  V0202405N005252200059N0320005N1+00565-00445102405ADDAA101000095AG10999GA1999+076205005GD13055+0750093GF105015999999999999999999MA1102401100225MW1001EQDQ01+999990APOSP N01 00000JPWTH 0QNNE81 0 00306G21U0 99999H11 0 32250K21 0 00024L21 0 02000M11 0 29595N21 0 00000Q21 0 10240S21 0 00042V11 0 00601X21 0 24010
037872259003927199001010600C+32900-097033SY-SA+0168DFW  V0203405N007752200059N0320005N1+00565-00395102455ADDAA101000095AA206000091AA324000091AG10000GA1999+076205025GD14085+0750093GF108035999001999999001991KA1240M+01221KA2240N+00061MA1102471100275MD1310121+9999MW1001REMSYN035333   10122 20006 70000 555   90106AWY024GRDL WSHFT/ 312 1007 54?EQDN01 00000JPWTH 0QNNE81 0 00510G21U0 99999H11 0 37250K21 0 00025L21 0 02000M11 0 29610N21 0 00000Q21 0 10245S21 0 00042V11 0 01004X21 0 34015
025872259003927199001010700C+32900-097033SAO  +0168DFW  V0203105N007252200059N0320005N1+00505-00445102475ADDAA101000095AG10999GA1999+076205005GD13065+0750093GF106015999999999999999999MA1102471100295MW1001EQDQ01+999990APOSP N01 00000JPWTH 0QNNE81 0 00308G21U0 99999H11 0 32250K21 0 00024L21 0 02000M11 0 29615N21 0 00000Q21 0 10247S21 0 00041V11 0 00801X21 0 31014
028172259003927199001010800C+32900-097033SAO  +0168DFW  V0203205N005752200059N0320005N1+00395-00395102505ADDAA101000095AG10999GA1999+076205025GD14085+0750093GF108025999999999999999999GJ104569MA1102511100325MW1001REMAWY00698456?EQDQ01+999990APOSP N01 00000JPWTH 0QNNE81 0 00510G21U0 99999H11 0 37250K21 0 00025L21 0 02000M11 0 29625N21 0 00000Q21 0 10250S21 0 00039V11 0 01003X21 0 32011
030672259003927199001010900C+32900-097033SAO  +0168DFW  V0203605N00415076205EN0320005N1+00115-00335102545ADDAA101000095AG10000GA1999+076205025GD14085+0750099GF108055999001999999001991MA1102541100365MD1310081+9999MW1001REMAWY009308 1007?EQDQ01+999990APOSP Q02  00003PRCP99N01 00000JPWTH 0QNNE81 0 00610G21 0 00250H11 0 37250K21 0 00026L21 0 02000M11 0 29635N21 0 00000Q21 0 10254S21 0 00034V11 0 01006X21 0 36008
025872259003927199001011000C+32900-097033SAO  +0168DFW  V0203205N00365076205EN0320005N1+00115-00395102585ADDAA101000095AG10999GA1999+076205025GD14085+0750099GF108065999999999999999999MA1102571100395MW1001EQDQ01+999990APOSP N01 00000JPWTH 0QNNE81 0 00610G21 0 00250H11 0 37250K21 0 00025L21 0 02000M11 0 29645N21 0 00000Q21 0 10258S21 0 00034V11 0 01007X21 0 32007
025872259003927199001011100C+32900-097033SAO  +0168DFW  V0203105N00155076205EN0320005N1+00115-00395102655ADDAA101000095AG10999GA1999+076205025GD14085+0750099GF108065999999999999999999MA1102641100465MW1001EQDQ01+999990APOSP N01 00000JPWTH 0QNNE81 0 00610G21 0 00250H11 0 37250K21 0 00025L21 0 02000M11 0 29665N21 0 00000Q21 0 10265S21 0 00034V11 0 01008X21 0 31003
034972259003927199001011200C+32900-097033SY-SA+0168DFW  V02099959000052200059N0320005N1-00065-00445102715ADDAA101000095AA206000091AG10000GA1999+076205025GD13075+0750093GF107035999001999999001991KA1240M+01221KA2120N-00111MA1102711100515MD1310151+9999MW1001REMSYN029333   10122 21011 555   90112AWY012315 1008 30?EQDN01 00000JPWTH 0QNNE81 0 00309G21U0 99999H11 0 37250K21 0 00024L21 0 02000M11 0 29680N21 0 00000Q21 0 10271S21 0 00031V11 0 00904X21 0 00000
025872259003927199001011300C+32900-097033SAO  +0168DFW  V0203405N002652200059N0320005N1-00065-00445102765ADDAA101000095AG10999GA1999+076205005GD11045+0750093GF104015999999999999999999MA1102741100565MW1001EQDQ01+999990APOSP N01 00000JPWTH 0QNNE81 0 00105G21U0 99999H11 0 32250K21 0 00024L21 0 02000M11 0 29695N21 0 00000Q21 0 10276S21 0 00031V11 0 00501X21 0 34005
025872259003927199001011400C+32900-097033SAO  +0168DFW  V0202305N001552200059N0320005N1+00065-00395102855ADDAA101000095AG10999GA1999+076205025GD12025+0750099GF102025999999999999999999MA1102841100645MW1001EQDQ01+999990APOSP N01 00000JPWTH 0QNNE81 0 00203G21U0 99999H11 0 37250K21 0 00025L21 0 02000M11 0 29720N21 0 00000Q21 0 10285S21 0 00033V11 0 00302X21 0 23003
030672259003927199001011500C+32900-097033SAO  +0168DFW  V02099959000052200059N0320005N1+00115-00335102865ADDAA101000095AG10000GA1999+076205025GD12025+0750099GF102025999001999999001991MA1102841100665MD1110151+9999MW1001REMAWY009115 1008?EQDQ01+999990APOSP Q02  00003PRCP99N01 00000JPWTH 0QNNE81 0 00203G21U0 99999H11 0 37250K21 0 00026L21 0 02000M11 0 29725N21 0 00000Q21 0 10286S21 0 00034V11 0 00302X21 0 00000
025872259003927199001011600C+32900-097033SAO  +0168DFW  V0202105N002152200059N0320005N1+00395-00285102935ADDAA101000095AG10999GA1999+076205025GD12025+0750099GF102025999999999999999999MA1102911100735MW1001EQDQ01+999990APOSP N01 00000JPWTH 0QNNE81 0 00203G21U0 99999H11 0 37250K21 0 00027L21 0 02000M11 0 29745N21 0 00000Q21 0 10293S21 0 00039V11 0 00302X21 0 21004
025872259003927199001011700C+32900-097033SAO  +0168DFW  V0202205N003652200059N0320005N1+00725-00225102995ADDAA101000095AG10999GA1999+076205025GD12025+0750099GF102025999999999999999999MA1102981100805MW1001EQDQ01+999990APOSP N01 00000JPWTH 0QNNE81 0 00203G21U0 99999H11 0 37250K21 0 00028L21 0 02000M11 0 29765N21 0 00000Q21 0 10299S21 0 00045V11 0 00302X21 0 22007
042472259003927199001011800C+32900-097033SY-SA+0168DFW  V0201805N004152200059N0320005N1+01005-00285102935ADDAA101000095AA206000091AG10000GA1999+036585035GA2999+076205025GD13999+0750093GD20065+9999999GF106025999001999999031991KA1120M+01001KA2240N-00221MA1102951100755MD1010081+9999MW1001REMSYN029333   10100 21022 555   90118AWY018AC S/ 008 1036 28?EQDN01 00000JPWTH 0P01    003SCCGD1QNNE81 0 00300E81 0 00007G21U0 99999H11 0 23120H11 0 37250K21 0 00027L21 0 02000M11 0 29750N21 0 00000Q21 0 10293S21 0 00050V11 0 00703X21 0 18008
025872259003927199001011900C+32900-097033SAO  +0168DFW  V0202205N004152200059N0320005N1+01115-00565102815ADDAA101000095AG10999GA1999+076205025GD13065+0750093GF106035999999999999999999MA1102811100635MW1001EQDQ01+999990APOSP N01 00000JPWTH 0QNNE81 0 00308G21U0 99999H11 0 37250K21 0 00022L21 0 02000M11 0 29715N21 0 00000Q21 0 10281S21 0 00052V11 0 00804X21 0 22008
034172259003927199001012000C+32900-097033SAO  +0168DFW  V0202105N003652200059N0320005N1+01225-00675102715ADDAA101000095AG10999GA1999+036585035GA2999+076205025GD13999+0750093GD20065+9999999GF106035999999999999999999MA1102711100525MW1001REMAWY005AC S?EQDQ01+999990APOSP N01 00000JPWTH 0P01    003SCCGD1QNNE81 0 00300E81 0 00008G21U0 99999H11 0 23120H11 0 37250K21 0 00020L21 0 02000M11 0 29685N21 0 00000Q21 0 10271S21 0 00054V11 0 00804X21 0 21007
038372259003927199001012100C+32900-097033SAO  +0168DFW  V0201805N004152200059N0320005N1+01285-00615102615ADDAA101000095AG10000GA1999+036585035GA2999+076205025GD13999+0750093GD20065+9999999GF106035999001999999071991MA1102611100425MD1710321+9999MW1001REMAWY017FEW AC/ 732 1078?EQDQ01+999990APOSP Q02  00003PRCP99N01 00000JPWTH 0P01    003SCCGD1QNNE81 0 00300E81 0 00008G21U0 99999H11 0 23120H11 0 37250K21 0 00021L21 0 02000M11 0 29655N21 0 00000Q21 0 10261S21 0 00055V11 0 00804X21 0 18008
031172259003927199001012200C+32900-097033SAO  +0168DFW  V0201805N002652200059N0320005N1+01285-00615102645ADDAA101000095AG10999GA1999+042675035GA2999+076205025GD12015+0420099GD23065+0750093GF107035999999999999999999MA1102641100465MW1001EQDQ01+999990APOSP N01 00000JPWTH 0QNNE81 0 00201E81 0 00308G21U0 99999H11 0 23140H11 0 37250K21 0 00021L21 0 02000M11 0 29665N21 0 00000Q21 0 10264S21 0 00055V11 0 00904X21 0 18005
031172259003927199001012300C+32900-097033SAO  +0168DFW  V0201605N003150762059N0320005N1+01115-00565102655ADDAA101000095AG10999GA1999+042675035GA2999+076205025GD12015+0420099GD23065+0750099GF107045999999999999999999MA1102641100465MW1001EQDQ01+999990APOSP N01 00000JPWTH 0QNNE81 0 00201E81 0 00408G21 0 00250H11 0 23140H11 0 37250K21 0 00022L21 0 02000M11 0 29665N21 0 00000Q21 0 10265S21 0 00052V11 0 00905X21 0 16006
040272259003927199001020000C+32900-097033SY-SA+0168DFW  V0201305N003152200059N0320005N1+00945-00565102555ADDAA101000095AA206000091AG10000GA1999+042675035GA2999+076205025GD12025+0420099GD24065+0750093GF108045999001999999071991KA1120M+01281KA2180N-00221MA1102541100365MD1810071+9999MW1001REMSYN029333   10128 21022 555   90200AWY012807 1077 55?EQDN01 00000JPWTH 0QNNE81 0 00202E81 0 00508G21U0 99999H11 0 23140H11 0 37250K21 0 00022L21 0 02000M11 0 29635N21 0 00000Q21 0 10255S21 0 00049V11 0 01005X21 0 13006
031172259003927199001020100C+32900-097033SAO  +0168DFW  V0201505N002652200059N0320005N1+00725-00445102635ADDAA101000095AG10999GA1999+042675035GA2999+076205025GD12035+0420099GD24055+0750093GF108045999999999999999999MA1102611100425MW1001EQDQ01+999990APOSP N01 00000JPWTH 0QNNE81 0 00204E81 0 00506G21U0 99999H11 0 23140H11 0 37250K21 0 00024L21 0 02000M11 0 29655N21 0 00000Q21 0 10263S21 0 00045V11 0 01005X21 0 15005
031172259003927199001020200C+32900-097033SAO  +0168DFW  V0201405N003652200059N0320005N1+00785-00445102625ADDAA101000095AG10999GA1999+036585035GA2999+076205025GD12045+0360099GD24045+0750093GF108045999999999999999999MA1102611100425MW1001EQDQ01+999990APOSP N01 00000JPWTH 0QNNE81 0 00205E81 0 00505G21U0 99999H11 0 23120H11 0 37250K21 0 00024L21 0 02000M11 0 29655N21 0 00000Q21 0 10262S21 0 00046V11 0 01005X21 0 14007
035972259003927199001020300C+32900-097033SAO  +0168DFW  V0201505N004150762059N0320005N1+00785-00505102625ADDAA101000095AG10000GA1999+036585035GA2999+076205025GD12035+0360099GD23025+0750099GF106035999001999999071991MA1102611100425MD1110071+9999MW1001REMAWY009107 1078?EQDQ01+999990APOSP Q02  00003PRCP99N01 00000JPWTH 0QNNE81 0 00204E81 0 00403G21 0 00250H11 0 23120H11 0 37250K21 0 00023L21 0 02000M11 0 29655N21 0 00000Q21 0 10262S21 0 00046V11 0 00704X21 0 15008
031172259003927199001020400C+32900-097033SAO  +0168DFW  V0201705N004150762059N0320005N1+00785-00565102615ADDAA101000095AG10999GA1999+036585035GA2999+076205025GD12025+0360099GD23045+0750099GF106055999999999999999999MA1102611100425MW1001EQDQ01+999990APOSP N01 00000JPWTH 0QNNE81 0 00203E81 0 00405G21 0 00250H11 0 23120H11 0 37250K21 0 00022L21 0 02000M11 0 29655N21 0 00000Q21 0 10261S21 0 00046V11 0 00806X21 0 17008
031172259003927199001020500C+32900-097033SAO  +0168DFW  V0201505N00525030485EN0240005N1+00785-00505102645ADDAA101000095AG10999GA1999+030485035GA2999+076205025GD13055+0300099GD23025+0750099GF106065999999999999999999MA1102641100465MW1001EQDQ01+999990APOSP N01 00000JPWTH 0QNNE81 0 00406E81 0 00402G21 0 00100H11 0 23100H11 0 37250K21 0 00023L21 0 01500M11 0 29665N21 0 00000Q21 0 10264S21 0 00046V11 0 00808X21 0 15010
045872259003927199001020600C+32900-097033SY-SA+0168DFW  V0201805N005250304859N0240005N1+00835-00395102605ADDAA101000095AA206000091AA324000091AG10000GA1999+030485045GA2999+076205005GD12025+0135099GD23055+0300099GD34015+0750099GF108085999051999999021991KA1240M+01281KA2240N-00221MA1102611100425MD1010001+9999MW1001REMSYN035333   10128 21022 70000 555   90206AWY025000 1521         ?    55?EQDN01 00000JPWTH 0QNNE81 0 00203E81 0 00406E81 0 00601G21 0 00100H11 0 21100H11 0 32250K21 0 00025L21 0 01500M11 0 29655N21 0 00000Q21 0 10260S21 0 00047V11 0 01010X21 0 18010
038172259003927199001020700C+32900-097033SAO  +0168DFW  V0201905N005750335359N0240005N1+00615+00115102575ADDAA101000095AG10999GA1999+019815065GA2999+033535045GA3999+076205025GD12025+0180099GD23055+0330099GD34025+0750099GF108085999999999999999999MA1102571100395MW1001REMAWY008RB08E45?EQDQ01+999990APOSP N01 00000JPWTH 0QNNE81 0 00202E81 0 00406E81 0 00602G21 0 00110H11 0 15065H11 0 21110H11 0 37250K21 0 00034L21 0 01500M11 0 29645N21 0 00000Q21 0 10257S21 0 00043V11 0 01010X21 0 19011
033472259003927199001020800C+32900-097033SAO  +0168DFW  V0201805N00525019815MN0240005N1+00675+00065102495ADDAA101000095AG10999GA1999+019815065GA2999+033535045GD13065+0180099GD24025+0330099GF108085999999999999999999GJ104359MA1102511100325MW1001REMAWY00698435?EQDQ01+999990APOSP N01 00000JPWTH 0QNNE81 0 00408E81 0 00602G21 0 00065H11 0 15065H11 0 21110K21 0 00033L21 0 01500M11 0 29625N21 0 00000Q21 0 10249S21 0 00044V11 0 01010X21 0 18010
030372259003927199001020900C+32900-097033SAO  +0168DFW  V0201805N00525019815MN0240005N1+00675+00005102425ADDAA101000095AA299999929AG10000GA1999+019815065GD14085+0180099GF108085999051999999999999MA1102441100255MD1810171+9999MW1001REMAWY01181700 15//?EQDQ01+999990APOSP N01 00000JPWTH 0QNNE81 0 00610G21 0 00065H11 0 15065K21 0 00032L21 0 01500M11 0 29605N21 0 00000Q21 0 10242S21 0 00044V11 0 01010X21 0 18010
031172259003927199001021000C+32900-097033SAO  +0168DFW  V0201605N00465019815MN0240005N1+00785-00065102395ADDAA101000095AG10999GA1999+019815065GA2999+033535045GD13065+0180099GD24025+0330099GF108085999999999999999999MA1102401100225MW1001EQDQ01+999990APOSP N01 00000JPWTH 0QNNE81 0 00408E81 0 00602G21 0 00065H11 0 15065H11 0 21110K21 0 00031L21 0 01500M11 0 29595N21 0 00000Q21 0 10239S21 0 00046V11 0 01010X21 0 16009
031172259003927199001021100C+32900-097033SAO  +0168DFW  V0201505N00415018295MN0240005N1+00725-00065102325ADDAA101000095AG10999GA1999+018295065GA2999+027435045GD13065+0180099GD24025+0270099GF108085999999999999999999MA1102341100155MW1001EQDQ01+999990APOSP N01 00000JPWTH 0QNNE81 0 00408E81 0 00602G21 0 00060H11 0 15060H11 0 21090K21 0 00031L21 0 01500M11 0 29575N21 0 00000Q21 0 10232S21 0 00045V11 0 01010X21 0 15008
039572259003927199001021200C+32900-097033SY-SA+0168DFW  V0201905N00465019815MN0240005N1+00675+00005102365ADDAA101000095AA206999929AC10I9AG10001AY161061AY221061GA1999+019815065GD14085+0180099GF108085999051999999999999KA1240M+01281KA2120N+00611MA1102371100195MD1510071+9999MW1021REMSYN035333   10128 20061 90906 555   90212AWY01450700 15// 43?EQDQ01+000003PRSWM2N01 00000JPWTH 0QNNE81 0 00610G21 0 00065H11 0 15065K21 0 00032L21 0 01500M11 0 29585N21 0 00000Q21 0 10236S21 0 00044V11 0 01010X21 0 19009
031172259003927199001021300C+32900-097033SAO  +0168DFW  V0201705N00365014635MN0240005N1+00675+00005102405ADDAA101000095AG10999GA1999+014635065GA2999+022865035GD13075+0144099GD24015+0210099GF108085999999999999999999MA1102401100225MW1001EQDQ01+999990APOSP N01 00000JPWTH 0QNNE81 0 00409E81 0 00601G21 0 00048H11 0 15048H11 0 23075K21 0 00032L21 0 01500M11 0 29595N21 0 00000Q21 0 10240S21 0 00044V11 0 01010X21 0 17007
031172259003927199001021400C+32900-097033SAO  +0168DFW  V0201605N00465013725MN0240005N1+00725+00065102385ADDAA101000095AG10999GA1999+013725065GA2999+076205005GD13075+0135099GD24015+0750099GF108085999999999999999999MA1102371100205MW1001EQDQ01+999990APOSP N01 00000JPWTH 0QNNE81 0 00409E81 0 00601G21 0 00045H11 0 15045H11 0 32250K21 0 00033L21 0 01500M11 0 29590N21 0 00000Q21 0 10238S21 0 00045V11 0 01010X21 0 16009
031872259003927199001021500C+32900-097033SAO  +0168DFW  V0201705N00525012195MN0240005N1+00785+00115102405ADDAA101000095AG10000GA1999+012195065GD14085+0120099GF108085999051999999999999MA1102401100225MD1210031+9999MW1001REMAWY021BINOVC W-N/ 203 15//?EQDQ01+999990APOSP Q02  00003PRCP99N01 00000JPWTH 0QNNE81 0 00610G21 0 00040H11 0 15040K21 0 00034L21 0 01500M11 0 29595N21 0 00000Q21 0 10240S21 0 00046V11 0 01010X21 0 17010
027872259003927199001021600C+32900-097033SAO  +0168DFW  V0201605N00675011585MN0240005N1+00895+00175102395ADDAA101000095AG10999GA1999+011585065GD14085+0114099GF108085999999999999999999MA1102401100225MW1001REMAWY011BINOVC W-N?EQDQ01+999990APOSP N01 00000JPWTH 0QNNE81 0 00610G21 0 00038H11 0 15038K21 0 00035L21 0 01500M11 0 29595N21 0 00000Q21 0 10239S21 0 00048V11 0 01010X21 0 16013
025872259003927199001021700C+32900-097033SAO  +0168DFW  V0201705N007252200059N0240005N1+01175+00175102365ADDAA101000095AG10999GA1999+010975065GD12025+0108099GF102025999999999999999999MA1102371100195MW1001EQDQ01+999990APOSP N01 00000JPWTH 0QNNE81 0 00202G21U0 99999H11 0 15036K21 0 00035L21 0 01500M11 0 29585N21 0 00000Q21 0 10236S21 0 00053V11 0 00202X21 0 17014
034172259003927199001021800C+32900-097033SY-SA+0168DFW  V0201905N00985220005CN0240005N9+01395+00175102265ADDAA101000095AA206000091AG14000GA1999+010975065GD12015+9999999GF101015011051012501001991KA1120M+01391KA2240N+00611MA1102271100105MD1810121+9999REMSYN029333   10139 20061 555   90218EQDQ01+999990APOA  N01 00000JPWTH 0QNNE81 0 00201G21U0 99999H11 0 15036K21 0 00035L21 0 01500M11 0 29560N21 0 00000Q21 0 10226S21 0 00057V11 0 00101X21 0 19019
026772259003927199001021900C+32900-097033SAO  +0168DFW  V0202005N010352200059N0240005N1+01445+00285102155ADDAA101000095AG10999GA1999+010975065GF100005999999999999999999MA1102171099985MW1001OC101341REMAWY007FEW SC?EQDQ01+999990APOSP N01 00000JPWTH 0QNNE81 0 00000G21U0 99999H11 0 15036K21 0 00037L21 0 01500M11 0 29525N21 0 00000Q21 0 10215S21 0 00058V11 0 00000X21 0 20020
026672259003927199001022000C+32900-097033SAO  +0168DFW  V0201905N008852200059N0240005N1+01505+00285102015ADDAA101000095AG10999GA1999+010975065GF100005999999999999999999MA1102031099855MW1001OC101241REMAWY006SC SE?EQDQ01+999990APOSP N01 00000JPWTH 0QNNE81 0 00000G21U0 99999H11 0 15036K21 0 00037L21 0 01500M11 0 29485N21 0 00000Q21 0 10201S21 0 00059V11 0 00000X21 0 19017
025972259003927199001022100C+32900-097033SAO  +0168DFW  V0201705N009352200059N0240005N1+01565+00335101925ADDAA101000095AG10000GF100005999999999999999999MA1101931099765MD1710341+9999MW1001REMAWY004734?EQDQ01+999990APOSP Q02  00003PRCP99N01 00000JPWTH 0QNNE81 0 00099G21U0 99999K21 0 00038L21 0 01500M11 0 29460N21 0 00000Q21 0 10192S21 0 00060V11 0 00000X21 0 17018
022472259003927199001022200C+32900-097033SAO  +0168DFW  V0201905N009852200059N0240005N1+01565+00335101905ADDAA101000095AG10999GF100005999999999999999999MA1101931099755MW1001OC101241EQDQ01+999990APOSP N01 00000JPWTH 0QNNE81 0 00099G21U0 99999K21 0 00038L21 0 01500M11 0 29455N21 0 00000Q21 0 10190S21 0 00060V11 0 00000X21 0 19019
022872259003927199001022300C+32900-097033SAO  +0168DFW  V0201805N008852200059N0240005N1+01445+00285101905ADDAA101000095AG10999GF100005999999999999999999MA1101931099755MW1001REMAWY003$$?EQDQ01+999990APOSP N01 00000JPWTH 0QNNE81 0 00099G21U0 99999K21 0 00037L21 0 01500M11 0 29455N21 0 00000Q21 0 10190S21 0 00058V11 0 00000X21 0 18017
030272259003927199001030000C+32900-097033SY-SA+0168DFW  V0201705N007252200059N0240005N1+01225+00225101915ADDAA101000095AA206000091AG10000GF100005001001999999001991KA1120M+01561KA2180N+00611MA1101931099755MD1610021+9999MW1001REMSYN029333   10156 20061 555   90300AWY007602 60?EQDN01 00000JPWTH 0QNNE81 0 00099G21U0 99999K21 0 00036L21 0 01500M11 0 29455N21 0 00000Q21 0 10191S21 0 00054V11 0 00000X21 0 17014
022472259003927199001030100C+32900-097033SAO  +0168DFW  V0201705N007752200059N0240005N1+01065+00225101935ADDAA101000095AG10999GF100005999999999999999999MA1101931099765MW1001OC100981EQDQ01+999990APOSP N01 00000JPWTH 0QNNE81 0 00099G21U0 99999K21 0 00036L21 0 01500M11 0 29460N21 0 00000Q21 0 10193S21 0 00051V11 0 00000X21 0 17015
021672259003927199001030200C+32900-097033SAO  +0168DFW  V0201705N007252200059N0240005N1+00945+00225101955ADDAA101000095AG10999GF100005999999999999999999MA1101961099785MW1001EQDQ01+999990APOSP N01 00000JPWTH 0QNNE81 0 00099G21U0 99999K21 0 00036L21 0 01500M11 0 29465N21 0 00000Q21 0 10195S21 0 00049V11 0 00000X21 0 17014
030672259003927199001030300C+32900-097033SAO  +0168DFW  V0201805N008252200059N0240005N1+01005+00335101965ADDAA101000095AG10000GA1999+006105075GD12025+0060099GF102025999061999999001991MA1101961099805MD1210051+9999MW1001REMAWY009205 1600?EQDQ01+999990APOSP Q02  00003PRCP99N01 00000JPWTH 0QNNE81 0 00202G21U0 99999H11 0 16020K21 0 00038L21 0 01500M11 0 29470N21 0 00000Q21 0 10196S21 0 00050V11 0 00202X21 0 18016
0091722590039271990010303164+32900-097033SAOSP+0182DFW  V0201701N00771008101MN0240001N1+99999+99999999999ADDAG10000GD13991+0081099GF107991999999999999999999MA1101961099791MW1001EQDQ01+999990APOSP 
0106722590039271990010303384+32900-097033SAOSP+0182DFW  V0201801N00721005401MN0240001N1+99999+99999999999ADDAG10000GD13991+0054099GD24991+0084099GF108991999999999999999999MA1101961099791MW1001EQDQ01+999990APOSP 
033072259003927199001030400C+32900-097033SAO  +0168DFW  V0201605N00775005185MN0192005N1+01115+00565101965ADDAA101000095AG10999GA1999+005185065GA2999+008845065GD13055+0051099GD24035+0087099GF108075999999999999999999MA1101961099805MW1001REMAWY010BKN V SCT?EQDQ01+999990APOSP N01 00000JPWTH 0QNNE81 0 00406E81 0 00604G21 0 00017H11 0 15017H11 0 15029K21 0 00042L21 0 01200M11 0 29470N21 0 00000Q21 0 10196S21 0 00052V11 0 01009X21 0 16015
031172259003927199001030500C+32900-097033SAO  +0168DFW  V0201805N00725005495MN0240005N1+01115+00615101955ADDAA101000095AG10999GA1999+005495065GA2999+009755065GD13065+0054099GD24025+0096099GF108085999999999999999999MA1101961099805MW1001EQDQ01+999990APOSP N01 00000JPWTH 0QNNE81 0 00408E81 0 00602G21 0 00018H11 0 15018H11 0 15032K21 0 00043L21 0 01500M11 0 29470N21 0 00000Q21 0 10195S21 0 00052V11 0 01010X21 0 18014
041372259003927199001030600C+32900-097033SY-SA+0168DFW  V0201805N00725005495MN0240005N1+01065+00565101915ADDAA101000095AA206000091AA324999929AG14000GA1999+005495065GA2999+009755065GD13065+0054099GD24025+0096099GF108085999051999999999999KA1240M+01561KA2240N+00611MA1101931099765MD1710031+9999REMSYN035333   10156 20061 79999 555   90306AWY012703 15// 60?EQDN01 00000JPWTH 0QNNE81 0 00408E81 0 00602G21 0 00018H11 0 15018H11 0 15032K21 0 00042L21 0 01500M11 0 29460N21 0 00000Q21 0 10191S21 0 00051V11 0 01010X21 0 18014
025872259003927199001030700C+32900-097033SAO  +0168DFW  V0201805N00675004885MN0240005N1+01065+00565101845ADDAA101000095AG10999GA1999+004885065GD14085+0048099GF108085999999999999999999MA1101861099705MW1001EQDQ01+999990APOSP N01 00000JPWTH 0QNNE81 0 00610G21 0 00016H11 0 15016K21 0 00042L21 0 01500M11 0 29440N21 0 00000Q21 0 10184S21 0 00051V11 0 01010X21 0 18013
028172259003927199001030800C+32900-097033SAO  +0168DFW  V0201705N00625004885MN0112005N1+01065+00565101815ADDAA101000095AG10999GA1999+004885065GD14085+0048099GF108085999999999999999999GJ104319MA1101831099665MW1001REMAWY00698431?EQDQ01+999990APOSP N01 00000JPWTH 0QNNE81 0 00610G21 0 00016H11 0 15016K21 0 00042L21 0 00700M11 0 29430N21 0 00000Q21 0 10181S21 0 00051V11 0 01010X21 0 17012
030672259003927199001030900C+32900-097033SAO  +0168DFW  V0201405N00465004885MN0240005N1+01065+00565101725ADDAA101000095AG10000GA1999+004885065GD14085+0048099GF108085999051999999999999MA1101761099585MD1810191+9999MW1001REMAWY009819 15//?EQDQ01+999990APOSP Q02  00003PRCP99N01 00000JPWTH 0QNNE81 0 00610G21 0 00016H11 0 15016K21 0 00042L21 0 01500M11 0 29405N21 0 00000Q21 0 10172S21 0 00051V11 0 01010X21 0 14009
025872259003927199001031000C+32900-097033SAO  +0168DFW  V0201505N00465004275MN0240005N1+01065+00565101675ADDAA101000095AG10999GA1999+004275065GD14085+0042099GF108085999999999999999999MA1101691099535MW1001EQDQ01+999990APOSP N01 00000JPWTH 0QNNE81 0 00610G21 0 00014H11 0 15014K21 0 00042L21 0 01500M11 0 29390N21 0 00000Q21 0 10167S21 0 00051V11 0 01010X21 0 15009
025872259003927199001031100C+32900-097033SAO  +0168DFW  V0201805N00465004275MN0240005N1+01065+00725101635ADDAA101000095AG10999GA1999+004275065GD14085+0042099GF108085999999999999999999MA1101661099495MW1001EQDQ01+999990APOSP N01 00000JPWTH 0QNNE81 0 00610G21 0 00014H11 0 15014K21 0 00045L21 0 01500M11 0 29380N21 0 00000Q21 0 10163S21 0 00051V11 0 01010X21 0 18009
034372259003927199001031200C+32900-097033SY-SA+0168DFW  V0201405N00365003055MN0240005N1+01115+00835101605ADDAA101000095AA206000091AG14000GA1999+003055065GD14085+0030099GF108085999051999999999999KA1240M+01561KA2120N+00941MA1101631099465MD1610121+9999REMSYN029333   10156 20094 555   90312AWY012612 15// 49?EQDN01 00000JPWTH 0QNNE81 0 00610G21 0 00010H11 0 15010K21 0 00047L21 0 01500M11 0 29370N21 0 00000Q21 0 10160S21 0 00052V11 0 01010X21 0 14007
0091722590039271990010312374+32900-097033SAOSP+0182DFW  V0201401N00411002701MN0240001N1+99999+99999999999ADDAG10000GD14991+0027099GF108991999999999999999999MA1101591099421MW1001EQDQ01+999990APOSP 
025872259003927199001031300C+32900-097033SAO  +0168DFW  V0201405N00415002445MN0160005N1+01115+00945101575ADDAA101000095AG10999GA1999+002445075GD14085+0024099GF108085999999999999999999MA1101591099425MW1001EQDQ01+999990APOSP N01 00000JPWTH 0QNNE81 0 00610G21 0 00008H11 0 16008K21 0 00049L21 0 01000M11 0 29360N21 0 00000Q21 0 10157S21 0 00052V11 0 01010X21 0 14008
027272259003927199001031400C+32900-097033SAO  +0168DFW  V0201505N00575002445MN0096005N1+01175+01005101545ADDAA101000095AG10999GA1999+002445075GD14085+0024099GF108085999999999999999999MA1101561099395MW1515REMAWY005LB30?EQDQ01+999990APOSP N01 03300JPWTH 0QNNE81 0 00610G21 0 00008H11 0 16008K21 0 00050L21 0 00600M11 0 29350N21 0 03300Q21 0 10154S21 0 00053V11 0 01010X21 0 15011
0111722590039271990010314034+32900-097033SAOSP+0182DFW  V0201401N00571002401MN0040001N1+99999+99999999999ADDAG10999GD14991+0024099GF108991999999999999999999MA1101521099351MW1511REMAWY011SFC VSBY 4?EQDQ01+999990APOSP 
032172259003927199001031500C+32900-097033SAO  +0168DFW  V0201405N00625002135MN0032005N1+01225+01065101505ADDAA101000095AA299999929AG10002GA1999+002135075GD14085+0021099GF108085999061999999999999MA1101521099365MD1710101+9999MW1455MW2515REMAWY023SFC VSBY 3/ 71000 16//?EQDQ01+999990APOSP N01 03370JPWTH 0QNNE81 0 00610G21 0 00007H11 0 16007K21 0 00051L21 0 00200M11 0 29340N21 0 03370Q21 0 10150S21 0 00054V11 0 01010X21 0 14012
0117722590039271990010315344+32900-097033SAOSP+0182DFW  V0201501N00571001501MN0020001N1+99999+99999999999ADDAG10002GD14991+0015099GF108991999999999999999999MA1101491099321MW1451MW2511REMAWY011SFC VSBY 2?EQDQ01+999990APOSP 
028672259003927199001031600C+32900-097033SAO  +0168DFW  V0201505N00625001835MN0032005N1+01285+01175101505ADDAA101000095AG10999GA1999+001835075GD14085+0018099GF108085999999999999999999MA1101521099365MW1455REMAWY019SFC VSBY 21/2 LE40?EQDQ01+999990APOSP N01 07000JPWTH 0QNNE81 0 00610G21 0 00006H11 0 16006K21 0 00053L21 0 00200M11 0 29340N21 0 07000Q21 0 10150S21 0 00055V11 0 01010X21 0 15012
029272259003927199001031700C+32900-097033SAO  +0168DFW  V0201505N00675001835MN0032005N1+01335+01225101455ADDAA101000095AG10999GA1999+001835075GD14085+0018099GF108085999999999999999999MA1101461099315MW1455MW2615REMAWY019SFC VSBY 21/2 RB41?EQDQ01+999990APOSP N01 02070JPWTH 0QNNE81 0 00610G21 0 00006H11 0 16006K21 0 00054L21 0 00200M11 0 29325N21 0 02070Q21 0 10145S21 0 00056V11 0 01010X21 0 15013
047772259003927199001031800C+32900-097033SY-SA+0168DFW  V0201705N00575001835MN0024005N1+01395+01335101395ADDAA101000395AA206000391AA324000391AC12I9AG10002AY161061AY251061GA1999+001835075GD14085+0018099GF108085999061999999999999KA1120M+01391KA2240N+00941MA1101421099265MD1810101+9999MW1455MW2515MW3581MW4615REMSYN041333   10139 20094 70003 90926 555   90318AWY050SFC VSBY 13/4 LB37/          ?      81001 16// 49?EQDN01 02033JPWTH 0N02 07000JPWTH 0QNNE81 0 00610G21 0 00006H11 0 16006K21 0 00056L21 0 00150M11 0 29310N21 0 02033N21 0 07000Q21 0 10139S21 0 00057V11 0 01010X21 0 17011
0097722590039271990010318334+32900-097033SAOSP+0182DFW  V0201901N00621001801MN0032001N1+99999+99999999999ADDAG10002GD14991+0018099GF108991999999999999999999MA1101351099191MW1451MW2511EQDQ01+999990APOSP 
031472259003927199001031900C+32900-097033SAO  +0168DFW  V0201705N00575001525MN0032005N1+01395+01335101275ADDAA101000395AG10999GA1999+001525075GD14085+0015099GF108085999999999999999999MA1101321099145MW1455MW2515MW3615REMAWY008RE27B49?EQDQ01+999990APOSP N01 02033JPWTH 0N02 07000JPWTH 0QNNE81 0 00610G21 0 00005H11 0 16005K21 0 00056L21 0 00200M11 0 29275N21 0 02033N21 0 07000Q21 0 10127S21 0 00057V11 0 01010X21 0 17011
0107722590039271990010319324+32900-097033SAOSP+0182DFW  V0201801N00771002401MN0080001N1+99999+99999999999ADDAG10999GD14991+0024099GF108991999999999999999999MA1101191099021MW1451REMAWY007PRESFR?EQDQ01+999990APOSP 
028572259003927199001032000C+32900-097033SAO  +0168DFW  V0201805N00725003055MN0160005N1+01615+01505101135ADDAA101000095AG10999GA1999+003055075GD14085+0030091GF108085999999999999999999MA1101151099005MW1001REMAWY018CIG 8V12 RE10LE28?EQDQ01+999990APOSP N01 00000JPWTH 0QNNE81 0 00610G21 0 00010H11 0 16010K21 0 00059L21 0 01000M11 0 29235N21 0 00000Q21 0 10113S21 0 00061V11 0 01010X21 0 18014
030372259003927199001032100C+32900-097033SAO  +0168DFW  V0201905N00525003355MN0192005N1+01725+01565101115ADDAA101000095AA299000391AG10000GA1999+003355075GD14085+0033099GF108085999061999999999999MA1101151098985MD1610271+9999MW1001REMAWY01162701 16//?EQDQ01+999990APOSP N01 00000JPWTH 0QNNE81 0 00610G21 0 00011H11 0 16011K21 0 00060L21 0 01200M11 0 29230N21 0 00000Q21 0 10111S21 0 00063V11 0 01010X21 0 19010
025872259003927199001032200C+32900-097033SAO  +0168DFW  V0201905N00725003965MN0160005N1+01785+01565101045ADDAA101000095AG10999GA1999+003965075GD14085+0039099GF108085999999999999999999MA1101081098925MW1001EQDQ01+999990APOSP N01 00000JPWTH 0QNNE81 0 00610G21 0 00013H11 0 16013K21 0 00060L21 0 01000M11 0 29210N21 0 00000Q21 0 10104S21 0 00064V11 0 01010X21 0 19014
0133722590039271990010322284+32900-097033SAOSP+0182DFW  V0202101N00671001501WN0012001N1+99999+99999999999ADDAG10999ED117U12199GD15991+0015099GF109991999999999999999999MA1101121098951MW1811REMAWY022R17LVR40V60+ VSBY SE2?EQDQ01+999990APOSP 
0143722590039271990010322324+32900-097033SAOSP+0182DFW  V0202001N006210039019N0064001N1+99999+99999999999ADDAG10999GD16991+0001599GD23991+0039099GD34991+0138099GF108991999999999999999999MA1101081098921MW1801REMAWY013R4 VSBY E1W7?EQDQ01+999990APOSP 
032872259003927199001032300C+32900-097033SAO  +0168DFW  V0202305N004650243859N0160005N1+01785+01565101095ADDAA101005895AG10999GA1999+003965155GA2999+024385035GD12015+0039099GD23045+0240099GF105055999999999999999999MA1101121098975MW1001REMAWY008RB16E38?EQDQ01+999990APOSP N01 00000JPWTH 0QNNE81 0 00201E81 0 00405G21 0 00080H11 0 17013H11 0 23080K21 0 00060L21 0 01000M11 0 29225N21 0 00000Q21 0 10109S21 0 00064V11 0 00606X21 0 23009
051772259003927199001040000C+32900-097033SY-SA+0168DFW  V0202605N004152200059N0192005N1+01725+01505101205ADDAA101000095AA206006091AA324006491AC12I9AG10001AY181061AY261061GA1999+003965155GA2999+009145095GD12999+0090099GD20015+9999999GF101015999031999999001991KA1120M+01831KA2180N+01001MA1101221099075MD1310081+9999MW1011REMSYN041333   10183 20100 70064 90925 555   90400AWY050CB E MOVG NE FEW CUFRA/      ?      30824 1300 65?EQDQ01+000003PRSWM2N01 00000JPWTH 0P01    003SCCGD1QNNE81 0 00200E81 0 00001G21U0 99999H11 0 17013H11 0 18030K21 0 00059L21 0 01200M11 0 29255N21 0 00000Q21 0 10120S21 0 00063V11 0 00101X21 0 26008
027572259003927199001040100C+32900-097033SAO  +0168DFW  V0202305N003152200059N0240005N1+01565+01335101325ADDAA101000095AG10999GA1999+009145095GF100005999999999999999999MA1101351099195MW1001REMAWY023CB E MOVG E OCNL LTGIC?EQDQ01+999990APOSP N01 00000JPWTH 0QNNE81 0 00000G21U0 99999H11 0 18030K21 0 00056L21 0 01500M11 0 29290N21 0 00000Q21 0 10132S21 0 00060V11 0 00000X21 0 23006
027572259003927199001040200C+32900-097033SAO  +0168DFW  V0202305N004652200059N0320005N1+01445+01005101375ADDAA101000095AG10999GA1999+009145095GF100005999999999999999999MA1101421099245MW1001REMAWY023CB E MOVG E OCNL LTGIC?EQDQ01+999990APOSP N01 00000JPWTH 0QNNE81 0 00000G21U0 99999H11 0 18030K21 0 00050L21 0 02000M11 0 29305N21 0 00000Q21 0 10137S21 0 00058V11 0 00000X21 0 23009
034372259003927199001040300C+32900-097033SAO  +0168DFW  V0202605N006252200059N0320005N1+01565+00565101465ADDAA101000095AG10000GA1999+009145095GF100005999999999999001991MA1101491099325MD1210251+9999MW1001REMAWY045CB E-SE MOVG E OCNL LTGIC/ 225     ?    1300?EQDQ01+999990APOSP Q02    033SCOLCGQ03  00003PRCP99N01 00000JPWTH 0QNNE81 0 00000G21U0 99999H11 0 18030K21 0 00042L21 0 02000M11 0 29330N21 0 00000Q21 0 10146S21 0 00060V11 0 00000X21 0 26012
026472259003927199001040400C+32900-097033SAO  +0168DFW  V0202705N00625025915MN0096005N1+01505+00115101525ADDAA101000095AG10999GA1999+025915035GD13055+0240099GF105045999999999999999999MA1101561099395MW1061MW2075EQDQ01+999990APOSP N01 08300JPWTH 0QNNE81 0 00406G21 0 00085H11 0 23085K21 0 00034L21 0 00600M11 0 29350N21 0 08300Q21 0 10152S21 0 00059V11 0 00605X21 0 27012
026472259003927199001040500C+32900-097033SAO  +0168DFW  V0202505N005752200059N0080005N1+01395+00065101585ADDAA101000095AG10999GA1999+027435035GD12045+0270099GF104045999999999999999999MA1101631099445MW1061MW2075EQDQ01+999990APOSP N01 08300JPWTH 0QNNE81 0 00205G21U0 99999H11 0 23090K21 0 00033L21 0 00500M11 0 29365N21 0 08300Q21 0 10158S21 0 00057V11 0 00505X21 0 25011
038872259003927199001040600C+32900-097033SY-SA+0168DFW  V0202505N005252200059N0096005N1+01335+00005101615ADDAA101000095AA206000091AA324006491AG10000AY111061AY211061GA1999+027435035GD12035+0270099GF103035999001999999071991KA1240M+01831KA2240N+01001MA1101661099485MD1110151+9999MW1061MW2075REMSYN035333   10183 20100 70064 555   90406AWY012115 1070 65?EQDN01 08300JPWTH 0QNNE81 0 00204G21U0 99999H11 0 23090K21 0 00032L21 0 00600M11 0 29375N21 0 08300Q21 0 10161S21 0 00056V11 0 00404X21 0 25010
025872259003927199001040700C+32900-097033SAO  +0168DFW  V0202505N005752200059N0112005N1+01225-00115101675ADDAA101000095AG10999GA1999+027435035GD12025+0270099GF102025999999999999999999MA1101691099535MW1001EQDQ01+999990APOSP N01 00000JPWTH 0QNNE81 0 00202G21U0 99999H11 0 23090K21 0 00030L21 0 00700M11 0 29390N21 0 00000Q21 0 10167S21 0 00054V11 0 00202X21 0 25011
028172259003927199001040800C+32900-097033SAO  +0168DFW  V0202805N008252200059N0128005N1+01225-00175101755ADDAA101000095AG10999GA1999+027435035GD12015+0270099GF101015999999999999999999GJ100439MA1101801099615MW1001REMAWY00698043?EQDQ01+999990APOSP N01 00000JPWTH 0QNNE81 0 00201G21U0 99999H11 0 23090K21 0 00029L21 0 00800M11 0 29415N21 0 00000Q21 0 10175S21 0 00054V11 0 00101X21 0 28016
027172259003927199001040900C+32900-097033SAO  +0168DFW  V0203305N006752200059N0128005N1+00945-00065101945ADDAA101000095AG10000GF100005999999999999999999MA1101961099805MD1310321+9999MW1001REMAWY016WSHFT GRDL/ 332?EQDQ01+999990APOSP Q02  00003PRCP99N01 00000JPWTH 0QNNE81 0 00099G21U0 99999K21 0 00031L21 0 00800M11 0 29470N21 0 00000Q21 0 10194S21 0 00049V11 0 00000X21 0 33013
025872259003927199001041000C+32900-097033SAO  +0168DFW  V0203305N006752200059N0240005N1+00725+00065102005ADDAA101000095AG10999GA1999+027435035GF100005999999999999999999MA1102031099855MW1001REMAWY006AC SE?EQDQ01+999990APOSP N01 00000JPWTH 0QNNE81 0 00000G21U0 99999H11 0 23090K21 0 00033L21 0 01500M11 0 29485N21 0 00000Q21 0 10200S21 0 00045V11 0 00000X21 0 33013
031172259003927199001041100C+32900-097033SAO  +0168DFW  V0203205N008852200059N0240005N1+00615+00065102025ADDAA101000095AG10999GA1999+027435035GA2999+076205005GD12015+0270099GD21015+0750093GF102015999999999999999999MA1102031099865MW1001EQDQ01+999990APOSP N01 00000JPWTH 0QNNE81 0 00201E81 0 00101G21U0 99999H11 0 23090H11 0 32250K21 0 00033L21 0 01500M11 0 29490N21 0 00000Q21 0 10202S21 0 00043V11 0 00201X21 0 32017
042572259003927199001041200C+32900-097033SY-SA+0168DFW  V0203305N007752200059N0240005N1+00505+00005102115ADDAA101000095AA206000091AA324006491AG10000GA1999+027435035GA2999+076205005GD12015+0270099GD21035+0750093GF104025999001999999071991KA1240M+01831KA2120N+00501MA1102131099955MD1310151+9999MW1001REMSYN035333   10183 20050 70064 555   90412AWY018315 1076 41 20025?EQDN01 00000JPWTH 0QNNE81 0 00201E81 0 00104G21U0 99999H11 0 23090H11 0 32250K21 0 00032L21 0 01500M11 0 29515N21 0 00000Q21 0 10211S21 0 00041V11 0 00502X21 0 33015
031172259003927199001041300C+32900-097033SAO  +0168DFW  V0203305N006752200059N0240005N1+00395+00005102225ADDAA101000095AG10999GA1999+027435035GA2999+076205005GD12015+0270099GD21035+0750093GF104025999999999999999999MA1102241100055MW1001EQDQ01+999990APOSP N01 00000JPWTH 0QNNE81 0 00201E81 0 00104G21U0 99999H11 0 23090H11 0 32250K21 0 00032L21 0 01500M11 0 29545N21 0 00000Q21 0 10222S21 0 00039V11 0 00502X21 0 33013
034372259003927199001041400C+32900-097033SAO  +0168DFW  V0203205N005752200059N0240005N1+00335+00005102295ADDAA101000095AG10999GA1999+027435035GA2999+076205025GD14999+0750093GD20085+9999999GF108025999999999999999999MA1102301100125MW1001REMAWY007FEW AC?EQDQ01+999990APOSP N01 00000JPWTH 0P01    003SCCGD1QNNE81 0 00500E81 0 00010G21U0 99999H11 0 23090H11 0 37250K21 0 00032L21 0 01500M11 0 29565N21 0 00000Q21 0 10229S21 0 00038V11 0 01003X21 0 32011
030672259003927199001041500C+32900-097033SAO  +0168DFW  V0203205N006752200059N0240005N1+00445+00005102375ADDAA101000095AG10000GA1999+076205025GD14085+0750093GF108035999001999999001991MA1102371100205MD1110251+9999MW1001REMAWY009125 1007?EQDQ01+999990APOSP Q02  00003PRCP99N01 00000JPWTH 0QNNE81 0 00510G21U0 99999H11 0 37250K21 0 00032L21 0 01500M11 0 29590N21 0 00000Q21 0 10237S21 0 00040V11 0 01004X21 0 32013
025872259003927199001041600C+32900-097033SAO  +0168DFW  V0203505N006752200059N0240005N1+00675+00065102465ADDAA101000095AG10999GA1999+076205025GD14085+0750093GF108025999999999999999999MA1102471100295MW1001EQDQ01+999990APOSP N01 00000JPWTH 0QNNE81 0 00510G21U0 99999H11 0 37250K21 0 00033L21 0 01500M11 0 29615N21 0 00000Q21 0 10246S21 0 00044V11 0 01003X21 0 35013
025872259003927199001041700C+32900-097033SAO  +0168DFW  V0203505N006252200059N0240005N1+00785+00005102495ADDAA101000095AG10999GA1999+076205025GD14085+0750093GF108025999999999999999999MA1102511100325MW1001EQDQ01+999990APOSP N01 00000JPWTH 0QNNE81 0 00510G21U0 99999H11 0 37250K21 0 00032L21 0 01500M11 0 29625N21 0 00000Q21 0 10249S21 0 00046V11 0 01003X21 0 35012
036872259003927199001041800C+32900-097033SY-SA+0168DFW  V0200205N005252200059N0240005N1+00895+00065102475ADDAA101000095AA206000091AA324006191AG14000GA1999+076205025GD14085+0750093GF108025999001999999001991KA1120M+01331KA2240N+00331MA1102471100305MD1010101+9999OC100821REMSYN035333   10133 20033 70061 555   90418AWY012010 1007 38?EQDN01 00000JPWTH 0QNNE81 0 00510G21U0 99999H11 0 37250K21 0 00033L21 0 01500M11 0 29620N21 0 00000Q21 0 10247S21 0 00048V11 0 01002X21 0 02010
025872259003927199001041900C+32900-097033SAO  +0168DFW  V0200105N005752200059N0240005N1+01005+00065102385ADDAA101000095AG10999GA1999+076205025GD14085+0750093GF108025999999999999999999MA1102401100225MW1001EQDQ01+999990APOSP N01 00000JPWTH 0QNNE81 0 00510G21U0 99999H11 0 37250K21 0 00033L21 0 01500M11 0 29595N21 0 00000Q21 0 10238S21 0 00050V11 0 01002X21 0 01011
022972259003927199001042000E+32900-097033SAO  +0168DFW  V0203505N005252200059N024000599+01065+00065102305ADDAA101000095GA1999+076205025GD14085+9999993GF108035999999999999999999MA1999999100145EQDN01 00000JPWTH 0QNNE81 0 00510G21U0 99999H11 0 37250K21 0 00033L21 0 01500M11 0 29570N21 0 00000Q21 0 10230S21 0 00051V11 0 01004X21 0 35010
031772259003927199001042100C+32900-097033SAO  +0168DFW  V0203605N006252200059N0240005N1+01115+00115102275ADDAA101000095AG10000GA1999+076205025GD14085+0750093GF108045999001999999001991MA1102271100105MD1610201+9999MW1001REMAWY020WND 33V04/ 620 1007?EQDQ01+999990APOSP Q02  00003PRCP99N01 00000JPWTH 0QNNE81 0 00510G21U0 99999H11 0 37250K21 0 00034L21 0 01500M11 0 29560N21 0 00000Q21 0 10227S21 0 00052V11 0 01005X21 0 36012
025872259003927199001042200C+32900-097033SAO  +0168DFW  V0200205N005252200059N0240005N1+01065+00115102255ADDAA101000095AG10999GA1999+076205025GD14085+0750093GF108025999999999999999999MA1102271100085MW1001EQDQ01+999990APOSP N01 00000JPWTH 0QNNE81 0 00510G21U0 99999H11 0 37250K21 0 00034L21 0 01500M11 0 29555N21 0 00000Q21 0 10225S21 0 00051V11 0 01002X21 0 02010
025872259003927199001042300C+32900-097033SAO  +0168DFW  V0200205N004152200059N0240005N1+01005+00115102295ADDAA101000095AG10999GA1999+076205025GD13075+0750093GF107015999999999999999999MA1102301100125MW1001EQDQ01+999990APOSP N01 00000JPWTH 0QNNE81 0 00309G21U0 99999H11 0 37250K21 0 00034L21 0 01500M11 0 29565N21 0 00000Q21 0 10229S21 0 00050V11 0 00901X21 0 02008
040272259003927199001050000C+32900-097033SY-SA+0168DFW  V0200205N003152200059N0240005N1+00785+00115102375ADDAA101000095AA206000091AG10000GA1999+036585035GA2999+076205025GD12015+0360099GD24075+0750093GF108025999001999999071991KA1120M+01171KA2180N+00331MA1102371100195MD1310081+9999MW1001REMSYN029333   10117 20033 555   90500AWY012308 1077 53?EQDN01 00000JPWTH 0QNNE81 0 00201E81 0 00509G21U0 99999H11 0 23120H11 0 37250K21 0 00034L21 0 01500M11 0 29585N21 0 00000Q21 0 10237S21 0 00046V11 0 01003X21 0 02006
025872259003927199001050100C+32900-097033SAO  +0168DFW  V0200105N002652200059N0240005N1+00725+00175102305ADDAA101000095AG10999GA1999+076205025GD14085+0750093GF108025999999999999999999MA1102301100125MW1001EQDQ01+999990APOSP N01 00000JPWTH 0QNNE81 0 00510G21U0 99999H11 0 37250K21 0 00035L21 0 01500M11 0 29565N21 0 00000Q21 0 10230S21 0 00045V11 0 01002X21 0 01005
025872259003927199001050200C+32900-097033SAO  +0168DFW  V0203605N001552200059N0240005N1+00675+00115102415ADDAA101000095AG10999GA1999+076205025GD13055+0750093GF105005999999999999999999MA1102401100225MW1001EQDQ01+999990APOSP N01 00000JPWTH 0QNNE81 0 00306G21U0 99999H11 0 37250K21 0 00034L21 0 01500M11 0 29595N21 0 00000Q21 0 10241S21 0 00044V11 0 00600X21 0 36003
030672259003927199001050300C+32900-097033SAO  +0168DFW  V0203605N003652200059N0320005N1+00565+00115102315ADDAA101000095AG10000GA1999+076205025GD11025+0750093GF102005999001999999001991MA1102301100125MD1810071+9999MW1001REMAWY009807 1008?EQDQ01+999990APOSP Q02  00003PRCP99N01 00000JPWTH 0QNNE81 0 00103G21U0 99999H11 0 37250K21 0 00034L21 0 02000M11 0 29565N21 0 00000Q21 0 10231S21 0 00042V11 0 00300X21 0 36007
025872259003927199001050400C+32900-097033SAO  +0168DFW  V0203605N003152200059N0320005N1+00445+00115102305ADDAA101000095AG10999GA1999+076205025GD11025+0750093GF102005999999999999999999MA1102301100125MW1001EQDQ01+999990APOSP N01 00000JPWTH 0QNNE81 0 00103G21U0 99999H11 0 37250K21 0 00034L21 0 02000M11 0 29565N21 0 00000Q21 0 10230S21 0 00040V11 0 00300X21 0 36006
025872259003927199001050500C+32900-097033SAO  +0168DFW  V0200505N002152200059N0240005N1+00395+00115102295ADDAA101000095AG10999GA1999+076205025GD13075+0750093GF107035999999999999999999MA1102301100105MW1001EQDQ01+999990APOSP N01 00000JPWTH 0QNNE81 0 00309G21U0 99999H11 0 37250K21 0 00034L21 0 01500M11 0 29560N21 0 00000Q21 0 10229S21 0 00039V11 0 00904X21 0 05004
036672259003927199001050600C+32900-097033SY-SA+0168DFW  V02099959000052200059N0192005N1+00395+00115102305ADDAA101000095AA206000091AA324000091AG10000GA1999+076205025GD14085+0750093GF108045999001999999001991KA1240M+01331KA2240N+00331MA1102301100125MD1510001+9999MW1001REMSYN035333   10133 20033 70000 555   90506AWY012500 1007 56?EQDN01 00000JPWTH 0QNNE81 0 00510G21U0 99999H11 0 37250K21 0 00034L21 0 01200M11 0 29565N21 0 00000Q21 0 10230S21 0 00039V11 0 01005X21 0 00000
025872259003927199001050700C+32900-097033SAO  +0168DFW  V0200205N002152200059N0192005N1+00395+00115102235ADDAA101000095AG10999GA1999+076205025GD14085+0750093GF108045999999999999999999MA1102241100055MW1001EQDQ01+999990APOSP N01 00000JPWTH 0QNNE81 0 00510G21U0 99999H11 0 37250K21 0 00034L21 0 01200M11 0 29545N21 0 00000Q21 0 10223S21 0 00039V11 0 01005X21 0 02004
034972259003927199001050800C+32900-097033SAO  +0168DFW  V0200105N002152200059N0192005N1+00285+00065102215ADDAA101000095AG10999GA1999+030485035GA2999+076205025GD14999+0750093GD20085+9999999GF108045999999999999999999MA1102201100035MW1001REMAWY013AC SE/ 98505?EQDQ01+999990APOSP N01 00000JPWTH 0P01    003SCCGD1QNNE81 0 00500E81 0 00010G21U0 99999H11 0 23100H11 0 37250K21 0 00033L21 0 01200M11 0 29540N21 0 00000Q21 0 10221S21 0 00037V11 0 01005X21 0 01004
035972259003927199001050900C+32900-097033SAO  +0168DFW  V0203605N004150762059N0192005N1+00285+00115102145ADDAA101000095AG10000GA1999+024385035GA2999+076205025GD12025+0240099GD24065+0750099GF108055999001999999051991MA1102131099975MD1710151+9999MW1001REMAWY009715 1057?EQDQ01+999990APOSP Q02  00003PRCP99N01 00000JPWTH 0QNNE81 0 00202E81 0 00608G21 0 00250H11 0 23080H11 0 37250K21 0 00034L21 0 01200M11 0 29520N21 0 00000Q21 0 10214S21 0 00037V11 0 01006X21 0 36008
031172259003927199001051000C+32900-097033SAO  +0168DFW  V0203605N003150762059N0192005N1+00175+00065102095ADDAA101000095AG10999GA1999+024385035GA2999+076205025GD12025+0240099GD24065+0750099GF108055999999999999999999MA1102101099925MW1001EQDQ01+999990APOSP N01 00000JPWTH 0QNNE81 0 00203E81 0 00607G21 0 00250H11 0 23080H11 0 37250K21 0 00033L21 0 01200M11 0 29505N21 0 00000Q21 0 10209S21 0 00035V11 0 01006X21 0 36006
031172259003927199001051100C+32900-097033SAO  +0168DFW  V0203505N003150762059N0192005N1+00225+00065102025ADDAA101000095AG10999GA1999+024385035GA2999+076205025GD12015+0240099GD24075+0750099GF108065999999999999999999MA1102031099855MW1001EQDQ01+999990APOSP N01 00000JPWTH 0QNNE81 0 00201E81 0 00609G21 0 00250H11 0 23080H11 0 37250K21 0 00033L21 0 01200M11 0 29485N21 0 00000Q21 0 10202S21 0 00036V11 0 01007X21 0 35006
040272259003927199001051200C+32900-097033SY-SA+0168DFW  V0203505N00365022865MN0160005N1+00285+00175102135ADDAA101000095AA206000091AG10000GA1999+022865035GA2999+076205025GD13065+0210099GD24025+0750099GF108085999001999999051991KA1240M+01331KA2120N+00111MA1102131099955MD1510021+9999MW1001REMSYN029333   10133 20011 555   90512AWY012502 1057 34?EQDN01 00000JPWTH 0QNNE81 0 00408E81 0 00602G21 0 00075H11 0 23075H11 0 37250K21 0 00035L21 0 01000M11 0 29515N21 0 00000Q21 0 10213S21 0 00037V11 0 01010X21 0 35007
031172259003927199001051300C+32900-097033SAO  +0168DFW  V0200205N00155022865MN0160005N1+00335+00115102155ADDAA101000095AG10999GA1999+022865035GA2999+076205025GD13065+0210099GD24025+0750099GF108085999999999999999999MA1102171099975MW1001EQDQ01+999990APOSP N01 00000JPWTH 0QNNE81 0 00408E81 0 00602G21 0 00075H11 0 23075H11 0 37250K21 0 00034L21 0 01000M11 0 29520N21 0 00000Q21 0 10215S21 0 00038V11 0 01010X21 0 02003
033072259003927199001051400C+32900-097033SAO  +0168DFW  V0203605N00365025915MN0128005N1+00285+00115102195ADDAA101000095AG10999GA1999+025915035GA2999+076205025GD13055+0240099GD24035+0750099GF108085999999999999999999MA1102171100005MW1001REMAWY010BINOVC NW?EQDQ01+999990APOSP N01 00000JPWTH 0QNNE81 0 00406E81 0 00604G21 0 00085H11 0 23085H11 0 37250K21 0 00034L21 0 00800M11 0 29530N21 0 00000Q21 0 10219S21 0 00037V11 0 01010X21 0 36007
037072259003927199001051500C+32900-097033SAO  +0168DFW  V0200305N00215025915EN0128005N1+00335+00115102155ADDAA101000095AG10000GA1999+025915035GA2999+076205025GD13065+0240099GD24025+0750099GF108085999001999999071991MA1102131099975MD1010021+9999MW1001REMAWY020BINOVC NW/ 002 1077?EQDQ01+999990APOSP Q02  00003PRCP99N01 00000JPWTH 0QNNE81 0 00407E81 0 00603G21 0 00085H11 0 23085H11 0 37250K21 0 00034L21 0 00800M11 0 29520N21 0 00000Q21 0 10215S21 0 00038V11 0 01010X21 0 03004
031172259003927199001051600C+32900-097033SAO  +0168DFW  V0200305N00315024385MN0112005N1+00445+00175102155ADDAA101000095AG10999GA1999+024385035GA2999+076205025GD13065+0240099GD24025+0750099GF108085999999999999999999MA1102131099975MW1001EQDQ01+999990APOSP N01 00000JPWTH 0QNNE81 0 00407E81 0 00603G21 0 00080H11 0 23080H11 0 37250K21 0 00035L21 0 00700M11 0 29520N21 0 00000Q21 0 10215S21 0 00040V11 0 01010X21 0 03006
031172259003927199001051700C+32900-097033SAO  +0168DFW  V0203605N00315021345MN0112005N1+00565+00175102135ADDAA101000095AG10999GA1999+021345035GA2999+076205025GD13065+0210099GD24025+0750099GF108085999999999999999999MA1102131099955MW1001EQDQ01+999990APOSP N01 00000JPWTH 0QNNE81 0 00408E81 0 00602G21 0 00070H11 0 23070H11 0 37250K21 0 00035L21 0 00700M11 0 29515N21 0 00000Q21 0 10213S21 0 00042V11 0 01010X21 0 36006
039672259003927199001051800C+32900-097033SY-SA+0168DFW  V0200305N00155021345MN0112005N1+00615+00225102125ADDAA101000095AA206000091AG14000GA1999+021345035GA2999+076205025GD13075+0210099GD24015+0750099GF108085999001999999071991KA1120M+00611KA2240N+00111MA1102101099935MD1810031+9999REMSYN029333   10061 20011 555   90518AWY012803 1077 34?EQDN01 00000JPWTH 0QNNE81 0 00409E81 0 00601G21 0 00070H11 0 23070H11 0 37250K21 0 00036L21 0 00700M11 0 29510N21 0 00000Q21 0 10212S21 0 00043V11 0 01010X21 0 03003
032572259003927199001051900C+32900-097033SAO  +0168DFW  V0201105N00155021345MN0112005N1+00675+00225101985ADDAA101000095AG10999GA1999+021345035GA2999+076205025GD13075+0210099GD24015+0750099GF108085999999999999999999MA1101961099805MW1615REMAWY005RB44?EQDQ01+999990APOSP N01 02000JPWTH 0QNNE81 0 00409E81 0 00601G21 0 00070H11 0 23070H11 0 37250K21 0 00036L21 0 00700M11 0 29470N21 0 02000Q21 0 10198S21 0 00044V11 0 01010X21 0 11003
027672259003927199001052000C+32900-097033SAO  +0168DFW  V0203305N00155018295MN0112005N1+00675+00335101945ADDAA101000095AG10999GA1999+018295065GD14085+0180099GF108085999999999999999999MA1101931099765MW1615REMAWY009INTMT R-?EQDQ01+999990APOSP N01 02000JPWTH 0QNNE81 0 00610G21 0 00060H11 0 15060K21 0 00038L21 0 00700M11 0 29460N21 0 02000Q21 0 10194S21 0 00044V11 0 01010X21 0 33003
036172259003927199001052100C+32900-097033SAO  +0168DFW  V0203505N00215014025MN0096005N1+00675+00395101945ADDAA101000595AG10010GA1999+014025065GA2999+025915035GD13065+0138099GD24025+0240099GF108085999071999999071999MA1101931099765MD1610171+9999MW1615REMAWY01161702 177/?EQDQ01+999990APOSP Q02  00053PRCP99N01 02000JPWTH 0QNNE81 0 00407E81 0 00603G21 0 00046H11 0 15046H11 0 23085K21 0 00039L21 0 00600M11 0 29460N21 0 02000Q21 0 10194S21 0 00044V11 0 01010X21 0 35004
027272259003927199001052200C+32900-097033SAO  +0168DFW  V0203605N00365018295MN0112005N1+00675+00395101955ADDAA101000095AG10999GA1999+018295065GD14085+0180099GF108085999999999999999999MA1101931099765MW1001REMAWY005RE44?EQDQ01+999990APOSP N01 00000JPWTH 0QNNE81 0 00610G21 0 00060H11 0 15060K21 0 00039L21 0 00700M11 0 29460N21 0 00000Q21 0 10195S21 0 00044V11 0 01010X21 0 36007
025872259003927199001052300C+32900-097033SAO  +0168DFW  V0200105N00265019815MN0112005N1+00675+00445101955ADDAA101000095AG10999GA1999+019815045GD14085+0180099GF108085999999999999999999MA1101931099765MW1001EQDQ01+999990APOSP N01 00000JPWTH 0QNNE81 0 00610G21 0 00065H11 0 21065K21 0 00040L21 0 00700M11 0 29460N21 0 00000Q21 0 10195S21 0 00044V11 0 01010X21 0 01005
041272259003927199001060000C+32900-097033SY-SA+0168DFW  V0200105N00215021345MN0112005N1+00675+00445102055ADDAA101000095AA206000591AA324000591AC13C9AG10000AY121061AY261061GA1999+021345045GD14085+0210099GF108085999001999999021999KA1120M+00671KA2180N+00111MA1102031099865MD1310101+9999MW1021REMSYN041333   10067 20011 70005 90931 555   90600AWY01431002 102/ 44?EQDQ01+000003PRSWM2N01 00000JPWTH 0QNNE81 0 00610G21 0 00070H11 0 21070K21 0 00040L21 0 00700M11 0 29490N21 0 00000Q21 0 10205S21 0 00044V11 0 01010X21 0 01004
025872259003927199001060100C+32900-097033SAO  +0168DFW  V0203405N00365021345MN0112005N1+00675+00445102085ADDAA101000095AG10999GA1999+021345045GD14085+0210099GF108085999999999999999999MA1102071099905MW1001EQDQ01+999990APOSP N01 00000JPWTH 0QNNE81 0 00610G21 0 00070H11 0 21070K21 0 00040L21 0 00700M11 0 29500N21 0 00000Q21 0 10208S21 0 00044V11 0 01010X21 0 34007
022972259003927199001060200E+32900-097033SAO  +0168DFW  V0203405N003650228659N016000599+00675+00445102155ADDAA101000095GA1999+022865045GD14085+9999999GF108085999999999999999999MA1999999099975EQDN01 00000JPWTH 0QNNE81 0 00610G21 0 00075H11 0 21075K21 0 00040L21 0 01000M11 0 29520N21 0 00000Q21 0 10215S21 0 00044V11 0 01010X21 0 34007
030672259003927199001060300C+32900-097033SAO  +0168DFW  V0203505N00315022865MN0160005N1+00675+00445102195ADDAA101000095AG10000GA1999+022865045GD14085+0210099GF108085999001999999021999MA1102171100005MD1110141+9999MW1001REMAWY009114 102/?EQDQ01+999990APOSP Q02  00003PRCP99N01 00000JPWTH 0QNNE81 0 00610G21 0 00075H11 0 21075K21 0 00040L21 0 01000M11 0 29530N21 0 00000Q21 0 10219S21 0 00044V11 0 01010X21 0 35006
025872259003927199001060400C+32900-097033SAO  +0168DFW  V0203605N00265022865MN0160005N1+00615+00395102225ADDAA101000095AG10999GA1999+022865045GD14085+0210099GF108055999999999999999999MA1102201100035MW1001EQDQ01+999990APOSP N01 00000JPWTH 0QNNE81 0 00610G21 0 00075H11 0 21075K21 0 00039L21 0 01000M11 0 29540N21 0 00000Q21 0 10222S21 0 00043V11 0 01006X21 0 36005
025872259003927199001060500C+32900-097033SAO  +0168DFW  V0200705N00155025915MN0160005N1+00565+00395102155ADDAA101000095AG10999GA1999+025915045GD14085+0240099GF108085999999999999999999MA1102131099975MW1001EQDQ01+999990APOSP N01 00000JPWTH 0QNNE81 0 00610G21 0 00085H11 0 21085K21 0 00039L21 0 01000M11 0 29520N21 0 00000Q21 0 10215S21 0 00042V11 0 01010X21 0 07003
040872259003927199001060600C+32900-097033SY-SA+0168DFW  V0203605N00155025915MN0160005N1+00615+00445102235ADDAA101000095AA206999929AA324000591AC10C9AG10000AY121061AY221061GA1999+025915045GD14085+0240099GF108085999001999999021999KA1240M+00671KA2240N+00111MA1102241100055MD1310051+9999MW1501MW2515REMSYN041333   10067 20011 70005 90901 555   90606AWY020LB20/ 30500 102/ 44?EQDN01 03300JPWTH 0QNNE81 0 00610G21 0 00085H11 0 21085K21 0 00040L21 0 01000M11 0 29545N21 0 03300Q21 0 10223S21 0 00043V11 0 01010X21 0 36003
032572259003927199001060700C+32900-097033SAO  +0168DFW  V0203605N00315028965EN0112005N1+00615+00445102235ADDAA101000095AG10999GA1999+028965045GA2999+036585045GD13055+0270099GD24035+0360099GF108085999999999999999999MA1102241100055MW1001REMAWY005LE20?EQDQ01+999990APOSP N01 00000JPWTH 0QNNE81 0 00406E81 0 00604G21 0 00095H11 0 21095H11 0 21120K21 0 00040L21 0 00700M11 0 29545N21 0 00000Q21 0 10223S21 0 00043V11 0 01010X21 0 36006
033472259003927199001060800C+32900-097033SAO  +0168DFW  V0200305N00155019815EN0112005N1+00565+00175102255ADDAA101000095AG10999GA1999+019815045GA2999+030485045GD13055+0180099GD24035+0300099GF108085999999999999999999GJ100009MA1102241100075MW1001REMAWY00698000?EQDQ01+999990APOSP N01 00000JPWTH 0QNNE81 0 00406E81 0 00604G21 0 00065H11 0 21065H11 0 21100K21 0 00035L21 0 00700M11 0 29550N21 0 00000Q21 0 10225S21 0 00042V11 0 01010X21 0 03003
035972259003927199001060900C+32900-097033SAO  +0168DFW  V0203205N00155021345MN0112005N1+00565+00445102275ADDAA101000095AG10000GA1999+021345045GA2999+030485045GD13055+0210099GD24035+0300099GF108085999001999999021999MA1102271100085MD1310031+9999MW1001REMAWY009303 102/?EQDQ01+999990APOSP Q02  00003PRCP99N01 00000JPWTH 0QNNE81 0 00406E81 0 00604G21 0 00070H11 0 21070H11 0 21100K21 0 00040L21 0 00700M11 0 29555N21 0 00000Q21 0 10227S21 0 00042V11 0 01010X21 0 32003
031172259003927199001061000C+32900-097033SAO  +0168DFW  V0203405N002150365859N0112005N1+00445+00395102255ADDAA101000095AG10999GA1999+021345045GA2999+036585045GD12035+0210099GD24055+0360099GF108055999999999999999999MA1102241100075MW1001EQDQ01+999990APOSP N01 00000JPWTH 0QNNE81 0 00204E81 0 00606G21 0 00120H11 0 21070H11 0 21120K21 0 00039L21 0 00700M11 0 29550N21 0 00000Q21 0 10225S21 0 00040V11 0 01006X21 0 34004
036472259003927199001061100C+32900-097033SAO  +0168DFW  V0203305N003150762059N0112005N1+00505+00395102345ADDAA101000095AG10999GA1999+021345045GA2999+036585045GA3999+076205025GD12025+0210099GD21025+0360093GD34055+0750099GF108055999999999999999999MA1102341100155MW1001EQDQ01+999990APOSP N01 00000JPWTH 0QNNE81 0 00202E81 0 00102E81 0 00606G21 0 00250H11 0 21070H11 0 21120H11 0 37250K21 0 00039L21 0 00700M11 0 29575N21 0 00000Q21 0 10234S21 0 00041V11 0 01006X21 0 33006
046972259003927199001061200C+32900-097033SY-SA+0168DFW  V0203605N002650762059N0112005N1+00445+00335102275ADDAA101000095AA206999929AA324000591AC12C9AG10000AY151061AY221061GA1999+024385035GA2999+076205025GD12025+0240099GD24065+0750099GF108075999001999999071991KA1240M+00671KA2120N+00441MA1102271100085MD1010001+9999MW1021REMSYN041333   10067 20044 70005 90960 555   90612AWY018000 1077 40 20002?EQDQ01+000003PRSWM2N01 00000JPWTH 0QNNE81 0 00202E81 0 00608G21 0 00250H11 0 23080H11 0 37250K21 0 00038L21 0 00700M11 0 29555N21 0 00000Q21 0 10227S21 0 00040V11 0 01009X21 0 36005
036472259003927199001061300C+32900-097033SAO  +0168DFW  V0203605N002150762059N0112005N1+00395+00285102345ADDAA101000095AG10999GA1999+024385035GA2999+036585035GA3999+076205025GD12015+0240099GD22015+0360099GD34065+0750099GF108085999999999999999999MA1102341100155MW1001EQDQ01+999990APOSP N01 00000JPWTH 0QNNE81 0 00201E81 0 00201E81 0 00608G21 0 00250H11 0 23080H11 0 23120H11 0 37250K21 0 00037L21 0 00700M11 0 29575N21 0 00000Q21 0 10234S21 0 00039V11 0 01010X21 0 36004
038072259003927199001061400C+32900-097033SAO  +0168DFW  V0203305N004150762059N0096005N1+00445+00335102425ADDAA101000095AG10999GA1999+024385035GA2999+042675035GA3999+076205025GD12015+0240099GD22015+0420099GD34065+0750099GF108065999999999999999999MA1102441100245MW1455REMAWY007BINOVC?EQDQ01+999990APOSP N01 07000JPWTH 0QNNE81 0 00201E81 0 00201E81 0 00608G21 0 00250H11 0 23080H11 0 23140H11 0 37250K21 0 00038L21 0 00600M11 0 29600N21 0 07000Q21 0 10242S21 0 00040V11 0 01008X21 0 33008
035972259003927199001061500C+32900-097033SAO  +0168DFW  V0203405N004150762059N0096005N1+00505+00395102485ADDAA101000095AG10000GA1999+042675035GA2999+076205025GD12015+0420099GD24075+0750099GF108065999001999999071991MA1102471100295MD1110201+9999MW1455REMAWY009120 1077?EQDQ01+999990APOSP Q02  00003PRCP99N01 07000JPWTH 0QNNE81 0 00201E81 0 00609G21 0 00250H11 0 23140H11 0 37250K21 0 00039L21 0 00600M11 0 29615N21 0 07000Q21 0 10248S21 0 00041V11 0 01008X21 0 34008
031772259003927199001061600C+32900-097033SAO  +0168DFW  V0203605N004150762059N0096005N1+00615+00335102565ADDAA101000095AG10999GA1999+042675035GA2999+076205025GD12025+0420099GD23065+0750099GF107065999999999999999999MA1102541100375MW1055MW2455EQDQ01+999990APOSP N01 07081JPWTH 0QNNE81 0 00202E81 0 00407G21 0 00250H11 0 23140H11 0 37250K21 0 00038L21 0 00600M11 0 29640N21 0 07081Q21 0 10256S21 0 00043V11 0 00908X21 0 36008
031172259003927199001061700C+32900-097033SAO  +0168DFW  V0200105N002650762059N0112005N1+00785+00225102585ADDAA101000095AG10999GA1999+042675035GA2999+076205025GD12015+0420099GD23065+0750099GF107065999999999999999999MA1102571100395MW1001EQDQ01+999990APOSP N01 00000JPWTH 0QNNE81 0 00201E81 0 00408G21 0 00250H11 0 23140H11 0 37250K21 0 00036L21 0 00700M11 0 29645N21 0 00000Q21 0 10258S21 0 00046V11 0 00908X21 0 01005
043572259003927199001061800C+32900-097033SY-SA+0168DFW  V0203605N00415076205EN0128005N1+00945+00225102475ADDAA101000095AA206000091AA324000591AG14000GA1999+036585035GA2999+076205025GD13999+0750099GD20065+9999999GF106035999001999999071991KA1120M+00941KA2240N+00391MA1102471100295MD1010001+9999REMSYN035333   10094 20039 70005 555   90618AWY018AC S/ 000 1078 39?EQDN01 00000JPWTH 0P01    003SCCGD1QNNE81 0 00400E81 0 00007G21 0 00250H11 0 23120H11 0 37250K21 0 00036L21 0 00800M11 0 29615N21 0 00000Q21 0 10247S21 0 00049V11 0 00704X21 0 36008
034172259003927199001061900C+32900-097033SAO  +0168DFW  V0200205N003652200059N0160005N1+01065+00175102345ADDAA101000095AG10999GA1999+036585035GA2999+076205025GD12999+0750099GD20035+9999999GF103025999999999999999999MA1102341100175MW1001REMAWY005AC S?EQDQ01+999990APOSP N01 00000JPWTH 0P01    003SCCGD1QNNE81 0 00200E81 0 00004G21U0 99999H11 0 23120H11 0 37250K21 0 00035L21 0 01000M11 0 29580N21 0 00000Q21 0 10234S21 0 00051V11 0 00403X21 0 02007
031172259003927199001062000C+32900-097033SAO  +0168DFW  V0200205N004152200059N0192005N1+01225+00065102275ADDAA101000095AG10999GA1999+042675035GA2999+076205025GD12015+0420099GD22025+0750099GF102025999999999999999999MA1102271100105MW1001EQDQ01+999990APOSP N01 00000JPWTH 0QNNE81 0 00201E81 0 00202G21U0 99999H11 0 23140H11 0 37250K21 0 00033L21 0 01200M11 0 29560N21 0 00000Q21 0 10227S21 0 00054V11 0 00302X21 0 02008
030672259003927199001062100C+32900-097033SAO  +0168DFW  V0200505N00215042675EN0192005N1+01175+00065102225ADDAA101000095AG10000GA1999+042675035GD13055+0420099GF105045999001999999051991MA1102241100055MD1610241+9999MW1001REMAWY009624 1050?EQDQ01+999990APOSP Q02  00003PRCP99N01 00000JPWTH 0QNNE81 0 00406G21 0 00140H11 0 23140K21 0 00033L21 0 01200M11 0 29545N21 0 00000Q21 0 10222S21 0 00053V11 0 00605X21 0 05004
025872259003927199001062200C+32900-097033SAO  +0168DFW  V0203605N00265042675EN0240005N1+01225+00065102195ADDAA101000095AG10999GA1999+042675035GD13065+0420099GF106065999999999999999999MA1102201100025MW1001EQDQ01+999990APOSP N01 00000JPWTH 0QNNE81 0 00408G21 0 00140H11 0 23140K21 0 00033L21 0 01500M11 0 29535N21 0 00000Q21 0 10219S21 0 00054V11 0 00808X21 0 36005
025872259003927199001062300C+32900-097033SAO  +0168DFW  V0203605N00155042675EN0240005N1+01175+00005102195ADDAA101000095AG10999GA1999+042675035GD13075+0420099GF107065999999999999999999MA1102201100025MW1001EQDQ01+999990APOSP N01 00000JPWTH 0QNNE81 0 00409G21 0 00140H11 0 23140K21 0 00032L21 0 01500M11 0 29535N21 0 00000Q21 0 10219S21 0 00053V11 0 00908X21 0 36003
040272259003927199001070000C+32900-097033SY-SA+0168DFW  V02099959000050426759N0192005N1+01005+00065102185ADDAA101000095AA206000091AG10000GA1999+030485035GA2999+042675035GD12015+0300099GD23065+0420099GF107065999001999999071991KA1120M+01221KA2180N+00391MA1102171100005MD1610051+9999MW1001REMSYN029333   10122 20039 555   90700AWY012605 1070 54?EQDN01 00000JPWTH 0QNNE81 0 00201E81 0 00408G21 0 00140H11 0 23100H11 0 23140K21 0 00033L21 0 01200M11 0 29530N21 0 00000Q21 0 10218S21 0 00050V11 0 00907X21 0 00000
025872259003927199001070100C+32900-097033SAO  +0168DFW  V0201205N00215042675EN0192005N1+00945+00115102215ADDAA101000095AG10999GA1999+042675035GD13075+0420099GF107065999999999999999999MA1102201100035MW1001EQDQ01+999990APOSP N01 00000JPWTH 0QNNE81 0 00409G21 0 00140H11 0 23140K21 0 00034L21 0 01200M11 0 29540N21 0 00000Q21 0 10221S21 0 00049V11 0 00908X21 0 12004
025872259003927199001070200C+32900-097033SAO  +0168DFW  V0209995900005033535MN0192005N1+00945+00115102235ADDAA101000095AG10999GA1999+033535035GD14085+0330099GF108085999999999999999999MA1102241100055MW1001EQDQ01+999990APOSP N01 00000JPWTH 0QNNE81 0 00610G21 0 00110H11 0 23110K21 0 00034L21 0 01200M11 0 29545N21 0 00000Q21 0 10223S21 0 00049V11 0 01010X21 0 00000
030972259003927199001070300C+32900-097033SAO  +0168DFW  V0209995900005030485MN0128005N1+00945+00175102265ADDAA101000095AA299999929AG10010GA1999+030485045GD14085+0300099GF108085999001999999021999MA1102271100085MD1210081+9999MW1615REMAWY017RB39/ 20800 102/?EQDQ01+999990APOSP N01 02000JPWTH 0QNNE81 0 00610G21 0 00100H11 0 21100K21 0 00035L21 0 00800M11 0 29555N21 0 02000Q21 0 10226S21 0 00049V11 0 01010X21 0 00000
028072259003927199001070400C+32900-097033SAO  +0168DFW  V0202305N00215028965MN0128005N1+00895+00065102295ADDAA101000095AG10999GA1999+028965045GD14085+0270099GF108085999999999999999999MA1102301100125MW1001REMAWY013RE0253B40E48?EQDQ01+999990APOSP N01 00000JPWTH 0QNNE81 0 00610G21 0 00095H11 0 21095K21 0 00033L21 0 00800M11 0 29565N21 0 00000Q21 0 10229S21 0 00048V11 0 01010X21 0 23004
025872259003927199001070500C+32900-097033SAO  +0168DFW  V02099959000052200059N0160005N1+00675+00065102245ADDAA101000095AG10999GA1999+028965045GD12025+0270099GF102025999999999999999999MA1102241100075MW1001EQDQ01+999990APOSP N01 00000JPWTH 0QNNE81 0 00202G21U0 99999H11 0 21095K21 0 00033L21 0 01000M11 0 29550N21 0 00000Q21 0 10224S21 0 00044V11 0 00202X21 0 00000
039672259003927199001070600C+32900-097033SY-SA+0168DFW  V0203305N002652200059N0160005N1+00565+00005102145ADDAA101000095AA206999929AA324999929AC13I9AG10008AY161061AY261061GA1999+028965045GD12025+0270099GF102025999001999999021991KA1240M+01221KA2240N+00391MA1102131099975MD1810121+9999MW1001REMSYN041333   10122 20039 79999 90934 555   90706AWY01481200 1020 54?EQDN01 00000JPWTH 0QNNE81 0 00203G21U0 99999H11 0 21095K21 0 00032L21 0 01000M11 0 29520N21 0 00000Q21 0 10214S21 0 00042V11 0 00303X21 0 33005
025872259003927199001070700C+32900-097033SAO  +0168DFW  V0203305N004152200059N0160005N1+00505+00065102105ADDAA101000095AG10999GA1999+028965045GD12025+0270099GF102025999999999999999999MA1102101099935MW1001EQDQ01+999990APOSP N01 00000JPWTH 0QNNE81 0 00203G21U0 99999H11 0 21095K21 0 00033L21 0 01000M11 0 29510N21 0 00000Q21 0 10210S21 0 00041V11 0 00303X21 0 33008
033472259003927199001070800C+32900-097033SAO  +0168DFW  V0203405N002150762059N0160005N1+00395-00115102105ADDAA101000095AG10999GA1999+028965035GA2999+076205005GD12025+0270099GD23035+0750099GF106065999999999999999999GJ102389MA1102101099935MW1001REMAWY00698238?EQDQ01+999990APOSP N01 00000JPWTH 0QNNE81 0 00203E81 0 00404G21 0 00250H11 0 23095H11 0 32250K21 0 00030L21 0 01000M11 0 29510N21 0 00000Q21 0 10210S21 0 00039V11 0 00707X21 0 34004
035972259003927199001070900C+32900-097033SAO  +0168DFW  V0203205N001550762059N0160005N1+00445-00285102075ADDAA101000095AG10000GA1999+028965045GA2999+076205025GD12025+0270099GD24065+0750099GF108065999001999999021991MA1102071099905MD1710071+9999MW1001REMAWY009707 1027?EQDQ01+999990APOSP Q02  00003PRCP99N01 00000JPWTH 0QNNE81 0 00202E81 0 00608G21 0 00250H11 0 21095H11 0 37250K21 0 00027L21 0 01000M11 0 29500N21 0 00000Q21 0 10207S21 0 00040V11 0 01007X21 0 32003
027772259003927199001071000C+32900-097033SAO  +0168DFW  V0209995900005076205EN0160005N1+00285-00115102045ADDAA101000095AG10999GA1999+076205025GD14085+0750099GF108075999999999999999999MA1102031099865MW1001REMAWY010BINOVC NW?EQDQ01+999990APOSP N01 00000JPWTH 0QNNE81 0 00610G21 0 00250H11 0 37250K21 0 00030L21 0 01000M11 0 29490N21 0 00000Q21 0 10204S21 0 00037V11 0 01009X21 0 00000
028272259003927199001071100E+32900-097033SAO  +0168DFW  V0203005N003650762059N019200599+00395-00225101985ADDAA101000095GA1999+028965035GA2999+076205025GD12025+9999999GD24065+9999999GF108075999999999999999999MA1999999099815EQDN01 00000JPWTH 0QNNE81 0 00202E81 0 00608G21 0 00250H11 0 23095H11 0 37250K21 0 00028L21 0 01200M11 0 29475N21 0 00000Q21 0 10198S21 0 00039V11 0 01009X21 0 30007
039472259003927199001071200C+32900-097033SY-SA+0168DFW  V0202105N00265076205CN0240005N9+00175-00115101995ADDAA101000095AA206000091AG14000GA1999+028965035GA2999+076205025GD12025+9999999GD23065+9999999GF107065021001999999071991KA1240M+01221KA2120N+00171MA1102001099815MD1610081+9999REMSYN029333   10122 20017 555   90712EQDQ01+999990APOA  N01 00000JPWTH 0QNNE81 0 00202E81 0 00407G21 0 00250H11 0 23095H11 0 37250K21 0 00030L21 0 01500M11 0 29475N21 0 00000Q21 0 10199S21 0 00035V11 0 00908X21 0 21005
031172259003927199001071300C+32900-097033SAO  +0168DFW  V0203005N003150762059N0240005N1+00335-00285102015ADDAA101000095AG10999GA1999+028965035GA2999+076205025GD12025+0270099GD23055+0750099GF107065999999999999999999MA1102001099835MW1001EQDQ01+999990APOSP N01 00000JPWTH 0QNNE81 0 00203E81 0 00406G21 0 00250H11 0 23095H11 0 37250K21 0 00027L21 0 01500M11 0 29480N21 0 00000Q21 0 10201S21 0 00038V11 0 00908X21 0 30006
037272259003927199001071400C+32900-097033SY-SA+0168DFW  V0200705N001550762059N0240005N1+00285-00225102045ADDAA101000095AA206000091AG10999GA1999+030485035GA2999+076205025GD12045+0300099GD23025+0750099GF106065999999999999999999KA1999M+01221KA2999N+00171MA1102071099865MD1610081+9999MW1001REMSYN017333   10122 20017EQDN01 00000JPWTH 0QNNE81 0 00205E81 0 00403G21 0 00250H11 0 23100H11 0 37250K21 0 00028L21 0 01500M11 0 29490N21 0 00000Q21 0 10204S21 0 00037V11 0 00807X21 0 07003
035972259003927199001071500C+32900-097033SAO  +0168DFW  V0201505N001550762059N0240005N1+00225-00225102095ADDAA101000095AG10000GA1999+036585035GA2999+076205025GD12035+0360099GD23025+0750099GF106055999001999999071991MA1102101099925MD1310101+9999MW1001REMAWY009310 1078?EQDQ01+999990APOSP Q02  00003PRCP99N01 00000JPWTH 0QNNE81 0 00204E81 0 00403G21 0 00250H11 0 23120H11 0 37250K21 0 00028L21 0 01500M11 0 29505N21 0 00000Q21 0 10209S21 0 00036V11 0 00706X21 0 15003
031172259003927199001071600C+32900-097033SAO  +0168DFW  V0203405N002152200059N0240005N1+00835-00285102105ADDAA101000095AG10999GA1999+042675035GA2999+076205025GD12015+0420099GD22035+0750099GF104025999999999999999999MA1102101099935MW1001EQDQ01+999990APOSP N01 00000JPWTH 0QNNE81 0 00201E81 0 00204G21U0 99999H11 0 23140H11 0 37250K21 0 00027L21 0 01500M11 0 29510N21 0 00000Q21 0 10210S21 0 00047V11 0 00503X21 0 34004
034372259003927199001071700C+32900-097033SAO  +0168DFW  V0203205N001552200059N0240005N1+01065-00395102055ADDAA101000095AG10999GA1999+042675035GA2999+076205005GD13999+0750093GD20055+9999999GF105025999999999999999999MA1102071099885MW1001REMAWY007FEW AC?EQDQ01+999990APOSP N01 00000JPWTH 0P01    003SCCGD1QNNE81 0 00300E81 0 00006G21U0 99999H11 0 23140H11 0 32250K21 0 00025L21 0 01500M11 0 29495N21 0 00000Q21 0 10205S21 0 00051V11 0 00603X21 0 32003
034072259003927199001071800C+32900-097033SY-SA+0168DFW  V0202305N002652200059N0240005N1+01225-00395101965ADDAA101000095AA206000091AG10000GA1999+076205005GF100005999001999999001991KA1120M+01221KA2240N+00171MA1101961099805MD1810121+9999MW1001REMSYN029333   10122 20017 555   90718AWY018CI E/ 812 1001 35?EQDN01 00000JPWTH 0QNNE81 0 00000G21U0 99999H11 0 32250K21 0 00025L21 0 01500M11 0 29470N21 0 00000Q21 0 10196S21 0 00054V11 0 00000X21 0 23005
020272259003927199001071900E+32900-097033SAO  +0168DFW  V0202305N002652200059N024000599+01335-00445101845ADDAA101000095GD10995+9999999GF100005999999999999999999MA1999999099685EQDN01 00000JPWTH 0QNNE81 0 00099G21U0 99999K21 0 00024L21 0 01500M11 0 29435N21 0 00000Q21 0 10184S21 0 00056V11 0 00000X21 0 23005
021672259003927199001072000C+32900-097033SAO  +0168DFW  V0201905N003152200059N0320005N1+01445-00445101725ADDAA101000095AG10999GF100005999999999999999999MA1101731099565MW1001EQDQ01+999990APOSP N01 00000JPWTH 0QNNE81 0 00099G21U0 99999K21 0 00024L21 0 02000M11 0 29400N21 0 00000Q21 0 10172S21 0 00058V11 0 00000X21 0 19006
025972259003927199001072100C+32900-097033SAO  +0168DFW  V0202005N003152200059N0320005N1+01505-00505101635ADDAA101000095AG10000GF100005999999999999999999MA1101661099485MD1610321+9999MW1001REMAWY004632?EQDQ01+999990APOSP Q02  00003PRCP99N01 00000JPWTH 0QNNE81 0 00099G21U0 99999K21 0 00023L21 0 02000M11 0 29375N21 0 00000Q21 0 10163S21 0 00059V11 0 00000X21 0 20006
021672259003927199001072200C+32900-097033SAO  +0168DFW  V0202205N004152200059N0320005N1+01505-00565101615ADDAA101000095AG10999GF100005999999999999999999MA1101631099465MW1001EQDQ01+999990APOSP N01 00000JPWTH 0QNNE81 0 00099G21U0 99999K21 0 00022L21 0 02000M11 0 29370N21 0 00000Q21 0 10161S21 0 00059V11 0 00000X21 0 22008
021672259003927199001072300C+32900-097033SAO  +0168DFW  V0201805N002152200059N0320005N1+01445-00565101615ADDAA101000095AG10999GF100005999999999999999999MA1101631099465MW1001EQDQ01+999990APOSP N01 00000JPWTH 0QNNE81 0 00099G21U0 99999K21 0 00022L21 0 02000M11 0 29370N21 0 00000Q21 0 10161S21 0 00058V11 0 00000X21 0 18004
030272259003927199001080000C+32900-097033SY-SA+0168DFW  V0201405N002652200059N0240005N1+01115-00505101615ADDAA101000095AA206000091AG10000GF100005001001999999001991KA1120M+01561KA2180N+00171MA1101631099445MD1710031+9999MW1001REMSYN029333   10156 20017 555   90800AWY007703 60?EQDN01 00000JPWTH 0QNNE81 0 00099G21U0 99999K21 0 00023L21 0 01500M11 0 29365N21 0 00000Q21 0 10161S21 0 00052V11 0 00000X21 0 14005
021672259003927199001080100C+32900-097033SAO  +0168DFW  V0201405N003652200059N0240005N1+00945-00505101635ADDAA101000095AG10999GF100005999999999999999999MA1101631099465MW1001EQDQ01+999990APOSP N01 00000JPWTH 0QNNE81 0 00099G21U0 99999K21 0 00023L21 0 01500M11 0 29370N21 0 00000Q21 0 10163S21 0 00049V11 0 00000X21 0 14007
021672259003927199001080200C+32900-097033SAO  +0168DFW  V0201305N003152200059N0240005N1+00785-00445101635ADDAA101000095AG10999GF100005999999999999999999MA1101631099465MW1001EQDQ01+999990APOSP N01 00000JPWTH 0QNNE81 0 00099G21U0 99999K21 0 00024L21 0 01500M11 0 29370N21 0 00000Q21 0 10163S21 0 00046V11 0 00000X21 0 13006
025972259003927199001080300C+32900-097033SAO  +0168DFW  V0201505N003152200059N0240005N1+00725-00395101655ADDAA101000095AG10000GF100005999999999999999999MA1101661099485MD1210031+9999MW1001REMAWY004203?EQDQ01+999990APOSP Q02  00003PRCP99N01 00000JPWTH 0QNNE81 0 00099G21U0 99999K21 0 00025L21 0 01500M11 0 29375N21 0 00000Q21 0 10165S21 0 00045V11 0 00000X21 0 15006
021672259003927199001080400C+32900-097033SAO  +0168DFW  V0201305N002152200059N0240005N1+00565-00395101665ADDAA101000095AG10999GF100005999999999999999999MA1101661099495MW1001EQDQ01+999990APOSP N01 00000JPWTH 0QNNE81 0 00099G21U0 99999K21 0 00025L21 0 01500M11 0 29380N21 0 00000Q21 0 10166S21 0 00042V11 0 00000X21 0 13004
021672259003927199001080500C+32900-097033SAO  +0168DFW  V0201605N002652200059N0320005N1+00505-00395101675ADDAA101000095AG10999GF100005999999999999999999MA1101691099515MW1001EQDQ01+999990APOSP N01 00000JPWTH 0QNNE81 0 00099G21U0 99999K21 0 00025L21 0 02000M11 0 29385N21 0 00000Q21 0 10167S21 0 00041V11 0 00000X21 0 16005
031972259003927199001080600C+32900-097033SY-SA+0168DFW  V0201705N002652200059N0320005N1+00445-00335101635ADDAA101000095AA206000091AA324000091AG10000GF100005001001999999001991KA1240M+01561KA2240N+00171MA1101661099485MD1010001+9999MW1001REMSYN035333   10156 20017 70000 555   90806AWY007000 60?EQDN01 00000JPWTH 0QNNE81 0 00099G21U0 99999K21 0 00026L21 0 02000M11 0 29375N21 0 00000Q21 0 10163S21 0 00040V11 0 00000X21 0 17005
021672259003927199001080700C+32900-097033SAO  +0168DFW  V0201505N001552200059N0240005N1+00335-00335101605ADDAA101000095AG10999GF100005999999999999999999MA1101591099445MW1001EQDQ01+999990APOSP N01 00000JPWTH 0QNNE81 0 00099G21U0 99999K21 0 00026L21 0 01500M11 0 29365N21 0 00000Q21 0 10160S21 0 00038V11 0 00000X21 0 15003
023972259003927199001080800C+32900-097033SAO  +0168DFW  V0201805N001552200059N0320005N1+00505-00395101615ADDAA101000095AG10999GF100005999999999999999999GJ104909MA1101631099465MW1001REMAWY00698490?EQDQ01+999990APOSP N01 00000JPWTH 0QNNE81 0 00099G21U0 99999K21 0 00025L21 0 02000M11 0 29370N21 0 00000Q21 0 10161S21 0 00041V11 0 00000X21 0 18003
025972259003927199001080900C+32900-097033SAO  +0168DFW  V0201805N001552200059N0320005N1+00395-00505101585ADDAA101000095AG10000GF100005999999999999999999MA1101591099425MD1710051+9999MW1001REMAWY004705?EQDQ01+999990APOSP Q02  00003PRCP99N01 00000JPWTH 0QNNE81 0 00099G21U0 99999K21 0 00023L21 0 02000M11 0 29360N21 0 00000Q21 0 10158S21 0 00039V11 0 00000X21 0 18003
021672259003927199001081000C+32900-097033SAO  +0168DFW  V0201905N003152200059N0240005N1+00175-00395101555ADDAA101000095AG10999GF100005999999999999999999MA1101561099395MW1001EQDQ01+999990APOSP N01 00000JPWTH 0QNNE81 0 00099G21U0 99999K21 0 00025L21 0 01500M11 0 29350N21 0 00000Q21 0 10155S21 0 00035V11 0 00000X21 0 19006
021672259003927199001081100C+32900-097033SAO  +0168DFW  V0201605N002652200059N0240005N1+00005-00395101525ADDAA101000095AG10999GF100005999999999999999999MA1101521099365MW1001EQDQ01+999990APOSP N01 00000JPWTH 0QNNE81 0 00099G21U0 99999K21 0 00025L21 0 01500M11 0 29340N21 0 00000Q21 0 10152S21 0 00032V11 0 00000X21 0 16005
030272259003927199001081200C+32900-097033SY-SA+0168DFW  V0201905N003152200059N0240005N1+00065-00335101525ADDAA101000095AA206000091AG10000GF100005001001999999001991KA1240M+01561KA2120N+00001MA1101521099365MD1610071+9999MW1001REMSYN029333   10156 20000 555   90812AWY007607 32?EQDN01 00000JPWTH 0QNNE81 0 00099G21U0 99999K21 0 00026L21 0 01500M11 0 29340N21 0 00000Q21 0 10152S21 0 00033V11 0 00000X21 0 19006
021672259003927199001081300C+32900-097033SAO  +0168DFW  V0201305N002152200059N0240005N1-00065-00335101505ADDAA101000095AG10999GF100005999999999999999999MA1101491099325MW1001EQDQ01+999990APOSP N01 00000JPWTH 0QNNE81 0 00099G21U0 99999K21 0 00026L21 0 01500M11 0 29330N21 0 00000Q21 0 10150S21 0 00031V11 0 00000X21 0 13004
020272259003927199001081400E+32900-097033SAO  +0168DFW  V0201405N002152200059N024000599+00005-00285101465ADDAA101000095GD10995+9999999GF100005999999999999999999MA1999999099295EQDN01 00000JPWTH 0QNNE81 0 00099G21U0 99999K21 0 00027L21 0 01500M11 0 29320N21 0 00000Q21 0 10146S21 0 00032V11 0 00000X21 0 14004
025972259003927199001081500C+32900-097033SAO  +0168DFW  V0201805N003652200059N0240005N1+00395-00065101495ADDAA101000095AG10000GF100005999999999999999999MA1101491099325MD1510031+9999MW1001REMAWY004503?EQDQ01+999990APOSP Q02  00003PRCP99N01 00000JPWTH 0QNNE81 0 00099G21U0 99999K21 0 00031L21 0 01500M11 0 29330N21 0 00000Q21 0 10149S21 0 00039V11 0 00000X21 0 18007
021672259003927199001081600C+32900-097033SAO  +0168DFW  V0202005N004152200059N0240005N1+00785-00065101555ADDAA101000095AG10999GF100005999999999999999999MA1101561099395MW1001EQDQ01+999990APOSP N01 00000JPWTH 0QNNE81 0 00099G21U0 99999K21 0 00031L21 0 01500M11 0 29350N21 0 00000Q21 0 10155S21 0 00046V11 0 00000X21 0 20008
021672259003927199001081700C+32900-097033SAO  +0168DFW  V0201905N003652200059N0240005N1+01225-00175101485ADDAA101000095AG10999GF100005999999999999999999MA1101491099325MW1001EQDQ01+999990APOSP N01 00000JPWTH 0QNNE81 0 00099G21U0 99999K21 0 00029L21 0 01500M11 0 29330N21 0 00000Q21 0 10148S21 0 00054V11 0 00000X21 0 19007
030272259003927199001081800C+32900-097033SY-SA+0168DFW  V0202005N003652200059N0240005N1+01615-00225101405ADDAA101000095AA206000091AG10000GF100005001001999999001991KA1120M+01611KA2240N-00111MA1101421099265MD1810071+9999MW1001REMSYN029333   10161 21011 555   90818AWY007807 30?EQDN01 00000JPWTH 0QNNE81 0 00099G21U0 99999K21 0 00028L21 0 01500M11 0 29310N21 0 00000Q21 0 10140S21 0 00061V11 0 00000X21 0 20007
021672259003927199001081900C+32900-097033SAO  +0168DFW  V0201905N004152200059N0320005N1+01895-00225101235ADDAA101000095AG10999GF100005999999999999999999MA1101251099095MW1001EQDQ01+999990APOSP N01 00000JPWTH 0QNNE81 0 00099G21U0 99999K21 0 00028L21 0 02000M11 0 29260N21 0 00000Q21 0 10123S21 0 00066V11 0 00000X21 0 19008
025772259003927199001082000C+32900-097033SAO  +0168DFW  V0201805N004152200059N0320005N1+02175-00285101115ADDAA101000095AG10999GA1999+076205005GF100005999999999999999999MA1101151098985MW1001REMAWY005CI N?EQDQ01+999990APOSP N01 00000JPWTH 0QNNE81 0 00000G21U0 99999H11 0 32250K21 0 00027L21 0 02000M11 0 29230N21 0 00000Q21 0 10111S21 0 00071V11 0 00000X21 0 18008
029772259003927199001082100C+32900-097033SAO  +0168DFW  V0201805N007252200059N0320005N1+02395-00675100955ADDAA101000095AG10000GA1999+076205005GF100005999001999999001991MA1100981098835MD1710421+9999MW1001REMAWY015CI N/ 742 1001?EQDQ01+999990APOSP Q02  00003PRCP99N01 00000JPWTH 0QNNE81 0 00000G21U0 99999H11 0 32250K21 0 00020L21 0 02000M11 0 29185N21 0 00000Q21 0 10095S21 0 00075V11 0 00000X21 0 18014
034472259003927199001082200C+32900-097033SAO  +0168DFW  V0201805N007752200059N0320005N1+02335-00675100985ADDAA101000095AG10999GA1999+004575105GA2999+076205025GD12999+0750099GD20015+9999999GF101015999999999999999999MA1101021098855MW1001REMAWY008K LYR N?EQDQ01+999990APOSP N01 00000JPWTH 0P01    003SCCGD1QNNE81 0 00200E81 0 00001G21U0 99999H11 0 04015H11 0 37250K21 0 00020L21 0 02000M11 0 29190N21 0 00000Q21 0 10098S21 0 00074V11 0 00101X21 0 18015
025872259003927199001082300C+32900-097033SAO  +0168DFW  V0201805N007752200059N0320005N1+02175-00565100985ADDAA101000095AG10999GA1999+076205025GD13055+0750093GF105025999999999999999999MA1101021098855MW1001EQDQ01+999990APOSP N01 00000JPWTH 0QNNE81 0 00306G21U0 99999H11 0 37250K21 0 00022L21 0 02000M11 0 29190N21 0 00000Q21 0 10098S21 0 00071V11 0 00603X21 0 18015
040272259003927199001090000C+32900-097033SY-SA+0168DFW  V0201805N005752200059N0320005N1+01835-00505101025ADDAA101000095AA206000091AG10000GA1999+036585035GA2999+076205025GD11015+0360093GD23065+0750093GF106035999001999999051991KA1120M+02391KA2180N-00111MA1101051098885MD1310051+9999MW1001REMSYN029333   10239 21011 555   90900AWY012305 1056 75?EQDN01 00000JPWTH 0QNNE81 0 00101E81 0 00307G21U0 99999H11 0 23120H11 0 37250K21 0 00023L21 0 02000M11 0 29200N21 0 00000Q21 0 10102S21 0 00065V11 0 00804X21 0 18011
025872259003927199001090100C+32900-097033SAO  +0168DFW  V0201605N00465076205EN0320005N1+01505-00505101055ADDAA101000095AG10999GA1999+076205025GD13075+0750099GF107055999999999999999999MA1101051098905MW1001EQDQ01+999990APOSP N01 00000JPWTH 0QNNE81 0 00409G21 0 00250H11 0 37250K21 0 00023L21 0 02000M11 0 29205N21 0 00000Q21 0 10105S21 0 00059V11 0 00906X21 0 16009
025872259003927199001090200C+32900-097033SAO  +0168DFW  V0201805N00525076205EN0320005N1+01395-00225101055ADDAA101000095AG10999GA1999+076205025GD14085+0750099GF108065999999999999999999MA1101051098905MW1001EQDQ01+999990APOSP N01 00000JPWTH 0QNNE81 0 00610G21 0 00250H11 0 37250K21 0 00028L21 0 02000M11 0 29205N21 0 00000Q21 0 10105S21 0 00057V11 0 01007X21 0 18010
030672259003927199001090300C+32900-097033SAO  +0168DFW  V0201805N005252200059N0320005N1+01395-00115101085ADDAA101000095AG10000GA1999+076205025GD14085+0750093GF108045999001999999001991MA1101081098935MD1210051+9999MW1001REMAWY009205 1007?EQDQ01+999990APOSP Q02  00003PRCP99N01 00000JPWTH 0QNNE81 0 00510G21U0 99999H11 0 37250K21 0 00030L21 0 02000M11 0 29215N21 0 00000Q21 0 10108S21 0 00057V11 0 01005X21 0 18010
025872259003927199001090400C+32900-097033SAO  +0168DFW  V0201805N003152200059N0320005N1+01175-00115101165ADDAA101000095AG10999GA1999+076205025GD14085+0750093GF108045999999999999999999MA1101191099025MW1001EQDQ01+999990APOSP N01 00000JPWTH 0QNNE81 0 00510G21U0 99999H11 0 37250K21 0 00030L21 0 02000M11 0 29240N21 0 00000Q21 0 10116S21 0 00053V11 0 01005X21 0 18006
025872259003927199001090500C+32900-097033SAO  +0168DFW  V0201905N006252200059N0320005N1+01175-00065101105ADDAA101000095AG10999GA1999+076205025GD13065+0750093GF106025999999999999999999MA1101121098975MW1001EQDQ01+999990APOSP N01 00000JPWTH 0QNNE81 0 00307G21U0 99999H11 0 37250K21 0 00031L21 0 02000M11 0 29225N21 0 00000Q21 0 10110S21 0 00053V11 0 00702X21 0 19012
038272259003927199001090600C+32900-097033SY-SA+0168DFW  V0201905N005252200059N0320005N1+01065-00175101105ADDAA101000095AA206000091AA324000091AG10000GA1999+076205025GD13055+0750093GF105015999001999999001991KA1240M+02391KA2240N-00111MA1101121098975MD1010031+9999MW1001REMSYN035333   10239 21011 70000 555   90906AWY012003 1008 75?EQDQ01+000052SCOTCVN01 00000JPWTH 0QNNE81 0 00306G21U0 99999H11 0 37250K21 0 00029L21 0 02000M11 0 29225N21 0 00000Q21 0 10110S21 0 00051V11 0 00601X21 0 19010
025872259003927199001090700C+32900-097033SAO  +0168DFW  V0201905N005252200059N0320005N1+01005-00115101095ADDAA101000095AG10999GA1999+076205025GD13075+0750093GF107025999999999999999999MA1101121098975MW1001EQDQ01+999990APOSP N01 00000JPWTH 0QNNE81 0 00309G21U0 99999H11 0 37250K21 0 00030L21 0 02000M11 0 29225N21 0 00000Q21 0 10109S21 0 00050V11 0 00902X21 0 19010
028172259003927199001090800C+32900-097033SAO  +0168DFW  V0201905N00575076205EN0320005N1+01005-00115101015ADDAA101000095AG10999GA1999+076205025GD13075+0750099GF107045999999999999999999GJ105769MA1101051098905MW1001REMAWY00698576?EQDQ01+999990APOSP N01 00000JPWTH 0QNNE81 0 00409G21 0 00250H11 0 37250K21 0 00030L21 0 02000M11 0 29205N21 0 00000Q21 0 10101S21 0 00050V11 0 00905X21 0 19011
030672259003927199001090900C+32900-097033SAO  +0168DFW  V0201905N005752200059N0320005N1+01005-00065101115ADDAA101000095AG10000GA1999+076205025GD13065+0750093GF106025999001999999001991MA1101151099005MD1310031+9999MW1001REMAWY009303 1008?EQDQ01+999990APOSP Q02  00003PRCP99N01 00000JPWTH 0QNNE81 0 00308G21U0 99999H11 0 37250K21 0 00031L21 0 02000M11 0 29235N21 0 00000Q21 0 10111S21 0 00050V11 0 00802X21 0 19011
025872259003927199001091000C+32900-097033SAO  +0168DFW  V0201905N004652200059N0320005N1+00785-00065101195ADDAA101000095AG10999GA1999+076205025GD13065+0750093GF106025999999999999999999MA1101221099075MW1001EQDQ01+999990APOSP N01 00000JPWTH 0QNNE81 0 00308G21U0 99999H11 0 37250K21 0 00031L21 0 02000M11 0 29255N21 0 00000Q21 0 10119S21 0 00046V11 0 00802X21 0 19009
025872259003927199001091100C+32900-097033SAO  +0168DFW  V0202005N003652200059N0320005N1+00615-00065101255ADDAA101000095AG10999GA1999+076205025GD14085+0750093GF108025999999999999999999MA1101291099125MW1001EQDQ01+999990APOSP N01 00000JPWTH 0QNNE81 0 00510G21U0 99999H11 0 37250K21 0 00031L21 0 02000M11 0 29270N21 0 00000Q21 0 10125S21 0 00043V11 0 01002X21 0 20007
034372259003927199001091200C+32900-097033SY-SA+0168DFW  V0202005N003152200059N0320005N1+00565-00065101295ADDAA101000095AA206000091AG14000GA1999+076205025GD13065+0750093GF106005999001999999001991KA1240M+02391KA2120N+00501MA1101321099155MD1110151+9999REMSYN029333   10239 20050 555   90912AWY012115 1008 41?EQDN01 00000JPWTH 0QNNE81 0 00307G21U0 99999H11 0 37250K21 0 00031L21 0 02000M11 0 29280N21 0 00000Q21 0 10129S21 0 00042V11 0 00700X21 0 20006
025872259003927199001091300C+32900-097033SAO  +0168DFW  V0201805N002652200059N0320005N1+00615-00065101425ADDAA101000095AG10999GA1999+076205025GD13065+0750093GF106025999999999999999999MA1101461099275MW1001EQDQ01+999990APOSP N01 00000JPWTH 0QNNE81 0 00308G21U0 99999H11 0 37250K21 0 00031L21 0 02000M11 0 29315N21 0 00000Q21 0 10142S21 0 00043V11 0 00802X21 0 18005
031172259003927199001091400C+32900-097033SAO  +0168DFW  V02099959000052200059N0240005N1+00675-00065101565ADDAA101000095AG10999GA1999+045725045GA2999+076205025GD12015+0450099GD23065+0750093GF107025999999999999999999MA1101561099415MW1001EQDQ01+999990APOSP N01 00000JPWTH 0QNNE81 0 00201E81 0 00308G21U0 99999H11 0 21150H11 0 37250K21 0 00031L21 0 01500M11 0 29355N21 0 00000Q21 0 10156S21 0 00044V11 0 00902X21 0 00000
035972259003927199001091500C+32900-097033SAO  +0168DFW  V0203405N006252200059N0240005N1+00945-00065101715ADDAA101000095AG10000GA1999+045725035GA2999+076205025GD12015+0450099GD23065+0750093GF107025999001999999031991MA1101731099565MD1310411+9999MW1001REMAWY009341 1038?EQDQ01+999990APOSP Q02  00003PRCP99N01 00000JPWTH 0QNNE81 0 00201E81 0 00308G21U0 99999H11 0 23150H11 0 37250K21 0 00031L21 0 01500M11 0 29400N21 0 00000Q21 0 10171S21 0 00049V11 0 00902X21 0 34012
025872259003927199001091600C+32900-097033SAO  +0168DFW  V0203605N008252200059N0240005N1+01505-00225101875ADDAA101000095AG10999GA1999+076205025GD14085+0750093GF108035999999999999999999MA1101901099735MW1001EQDQ01+999990APOSP N01 00000JPWTH 0QNNE81 0 00510G21U0 99999H11 0 37250K21 0 00028L21 0 01500M11 0 29450N21 0 00000Q21 0 10187S21 0 00059V11 0 01004X21 0 36016
025872259003927199001091700C+32900-097033SAO  +0168DFW  V0200205N006252200059N0240005N1+01565+00005101965ADDAA101000095AG10999GA1999+076205025GD14085+0750093GF108025999999999999999999MA1102001099815MW1001EQDQ01+999990APOSP N01 00000JPWTH 0QNNE81 0 00510G21U0 99999H11 0 37250K21 0 00032L21 0 01500M11 0 29475N21 0 00000Q21 0 10196S21 0 00060V11 0 01003X21 0 02012
034372259003927199001091800C+32900-097033SY-SA+0168DFW  V0200205N004652200059N0240005N1+01835+00115101995ADDAA101000095AA206000091AG14000GA1999+076205005GD13075+0750093GF107025999001999999001991KA1120M+01831KA2240N+00501MA1102031099855MD1110291+9999REMSYN029333   10183 20050 555   90918AWY012129 1001 41?EQDN01 00000JPWTH 0QNNE81 0 00309G21U0 99999H11 0 32250K21 0 00034L21 0 01500M11 0 29485N21 0 00000Q21 0 10199S21 0 00065V11 0 00903X21 0 02009
025872259003927199001091900C+32900-097033SAO  +0168DFW  V0200105N004152200059N0240005N1+02065+00225101935ADDAA101000095AG10999GA1999+076205005GD13065+0750093GF106025999999999999999999MA1101961099805MW1001EQDQ01+999990APOSP N01 00000JPWTH 0QNNE81 0 00307G21U0 99999H11 0 32250K21 0 00036L21 0 01500M11 0 29470N21 0 00000Q21 0 10193S21 0 00069V11 0 00702X21 0 01008
025872259003927199001092000C+32900-097033SAO  +0168DFW  V0200105N004652200059N0240005N1+02225+00005101865ADDAA101000095AG10999GA1999+076205005GD11025+0750093GF102015999999999999999999MA1101901099735MW1001EQDQ01+999990APOSP N01 00000JPWTH 0QNNE81 0 00103G21U0 99999H11 0 32250K21 0 00032L21 0 01500M11 0 29450N21 0 00000Q21 0 10186S21 0 00072V11 0 00301X21 0 01009
031772259003927199001092100C+32900-097033SAO  +0168DFW  V0203305N004652200059N0240005N1+02285-00065101915ADDAA101000095AG10000GA1999+076205005GD12015+0750099GF101015999001999999001991MA1101961099785MD1510071+9999MW1001REMAWY020WND 30V36/ 507 1001?EQDQ01+999990APOSP Q02  00003PRCP99N01 00000JPWTH 0QNNE81 0 00201G21U0 99999H11 0 32250K21 0 00031L21 0 01500M11 0 29465N21 0 00000Q21 0 10191S21 0 00073V11 0 00101X21 0 33009
026172259003927199001092200C+32900-097033SAO  +0168DFW  V0200105N005252200059N0240005N1+02285-00225101975ADDAA101000095AG10999GA1999+076205005GF100005999999999999999999MA1102001099835MW1001REMAWY009CI SE-SW?EQDQ01+999990APOSP N01 00000JPWTH 0QNNE81 0 00000G21U0 99999H11 0 32250K21 0 00028L21 0 01500M11 0 29480N21 0 00000Q21 0 10197S21 0 00073V11 0 00000X21 0 01010
026072259003927199001092300C+32900-097033SAO  +0168DFW  V0203605N004152200059N0240005N1+02115-00335102035ADDAA101000095AG10999GA1999+076205005GF100005999999999999999999MA1102071099885MW1001REMAWY008CI SE-S?EQDQ01+999990APOSP N01 00000JPWTH 0QNNE81 0 00000G21U0 99999H11 0 32250K21 0 00026L21 0 01500M11 0 29495N21 0 00000Q21 0 10203S21 0 00070V11 0 00000X21 0 36008
033472259003927199001100000C+32900-097033SY-SA+0168DFW  V0203505N003152200059N0240005N1+01615-00115102075ADDAA101000095AA206000091AG14000GA1999+076205005GF100005999001999999001991KA1120M+02331KA2180N+00501MA1102101099925MD1110141+9999REMSYN029333   10233 20050 555   91000AWY018CI S/ 114 1001 74?EQDN01 00000JPWTH 0QNNE81 0 00000G21U0 99999H11 0 32250K21 0 00030L21 0 01500M11 0 29505N21 0 00000Q21 0 10207S21 0 00061V11 0 00000X21 0 35006
021672259003927199001100100C+32900-097033SAO  +0168DFW  V0203305N004652200059N0320005N1+01565-00115102165ADDAA101000095AG10999GF100005999999999999999999MA1102171100005MW1001EQDQ01+999990APOSP N01 00000JPWTH 0QNNE81 0 00099G21U0 99999K21 0 00030L21 0 02000M11 0 29530N21 0 00000Q21 0 10216S21 0 00060V11 0 00000X21 0 33009
021672259003927199001100200C+32900-097033SAO  +0168DFW  V0203205N004652200059N0320005N1+01335-00065102225ADDAA101000095AG10999GF100005999999999999999999MA1102241100055MW1001EQDQ01+999990APOSP N01 00000JPWTH 0QNNE81 0 00099G21U0 99999K21 0 00031L21 0 02000M11 0 29545N21 0 00000Q21 0 10222S21 0 00056V11 0 00000X21 0 32009
025972259003927199001100300C+32900-097033SAO  +0168DFW  V0203005N004152200059N0320005N1+01445-00115102265ADDAA101000095AG10000GF100005999999999999999999MA1102301100105MD1110191+9999MW1001REMAWY004119?EQDQ01+999990APOSP Q02  00003PRCP99N01 00000JPWTH 0QNNE81 0 00099G21U0 99999K21 0 00030L21 0 02000M11 0 29560N21 0 00000Q21 0 10226S21 0 00058V11 0 00000X21 0 30008
021672259003927199001100400C+32900-097033SAO  +0168DFW  V0203105N005252200059N0320005N1+01285-00115102295ADDAA101000095AG10999GF100005999999999999999999MA1102341100145MW1001EQDQ01+999990APOSP N01 00000JPWTH 0QNNE81 0 00099G21U0 99999K21 0 00030L21 0 02000M11 0 29570N21 0 00000Q21 0 10229S21 0 00055V11 0 00000X21 0 31010
021672259003927199001100500C+32900-097033SAO  +0168DFW  V0203005N003652200059N0320005N1+01115-00115102325ADDAA101000095AG10999GF100005999999999999999999MA1102341100175MW1001EQDQ01+999990APOSP N01 00000JPWTH 0QNNE81 0 00099G21U0 99999K21 0 00030L21 0 02000M11 0 29580N21 0 00000Q21 0 10232S21 0 00052V11 0 00000X21 0 30007
027072259003927199001100600C+32900-097033SAO  +0168DFW  V0203405N003152200059N0320005N1+00835-00115102375ADDAA101000095AA206000091AG10000GF100005999999999999999999KA1999M+02331MA1102401100225MD1310121+9999MW1001REMAWY007312 74?EQDQ01+999990APOSP N01 00000JPWTH 0QNNE81 0 00099G21U0 99999K21 0 00030L21 0 02000M11 0 29595N21 0 00000Q21 0 10237S21 0 00047V11 0 00000X21 0 34006
021672259003927199001100700C+32900-097033SAO  +0168DFW  V0203305N003152200059N0320005N1+00615-00115102345ADDAA101000095AG10999GF100005999999999999999999MA1102371100195MW1001EQDQ01+999990APOSP N01 00000JPWTH 0QNNE81 0 00099G21U0 99999K21 0 00030L21 0 02000M11 0 29585N21 0 00000Q21 0 10234S21 0 00043V11 0 00000X21 0 33006
023972259003927199001100800C+32900-097033SAO  +0168DFW  V0200705N002152200059N0320005N1+00615-00175102355ADDAA101000095AG10999GF100005999999999999999999GJ105619MA1102371100205MW1001REMAWY00698561?EQDQ01+999990APOSP N01 00000JPWTH 0QNNE81 0 00099G21U0 99999K21 0 00029L21 0 02000M11 0 29590N21 0 00000Q21 0 10235S21 0 00043V11 0 00000X21 0 07004
025972259003927199001100900C+32900-097033SAO  +0168DFW  V0202005N003152200059N0320005N1+00565-00115102375ADDAA101000095AG10000GF100005999999999999999999MA1102401100225MD1510001+9999MW1001REMAWY004500?EQDQ01+999990APOSP Q02  00003PRCP99N01 00000JPWTH 0QNNE81 0 00099G21U0 99999K21 0 00030L21 0 02000M11 0 29595N21 0 00000Q21 0 10237S21 0 00042V11 0 00000X21 0 20006
021672259003927199001101000C+32900-097033SAO  +0168DFW  V02099959000052200059N0320005N1+00615-00115102355ADDAA101000095AG10999GF100005999999999999999999MA1102401100205MW1001EQDQ01+999990APOSP N01 00000JPWTH 0QNNE81 0 00099G21U0 99999K21 0 00030L21 0 02000M11 0 29590N21 0 00000Q21 0 10235S21 0 00043V11 0 00000X21 0 00000
021672259003927199001101100C+32900-097033SAO  +0168DFW  V0202405N002652200059N0320005N1+00565-00065102365ADDAA101000095AG10999GF100005999999999999999999MA1102371100205MW1001EQDQ01+999990APOSP N01 00000JPWTH 0QNNE81 0 00099G21U0 99999K21 0 00031L21 0 02000M11 0 29590N21 0 00000Q21 0 10236S21 0 00042V11 0 00000X21 0 24005
031772259003927199001101200C+32900-097033SAO  +0168DFW  V0202305N002652200059N0320005N1+00565-00115102355ADDAA101000095AA206000091AG10000GA1999+076205005GD11025+0750093GF102005999001999999001991KA1999N+00391MA1102371100195MD1610031+9999MW1001REMAWY012603 1001 39?EQDQ01+999990APOSP N01 00000JPWTH 0QNNE81 0 00102G21U0 99999H11 0 32250K21 0 00030L21 0 02000M11 0 29585N21 0 00000Q21 0 10235S21 0 00042V11 0 00200X21 0 23005
025872259003927199001101300C+32900-097033SAO  +0168DFW  V0202105N003652200059N0320005N1+00225-00115102395ADDAA101000095AG10999GA1999+076205005GD12015+0750099GF101015999999999999999999MA1102401100225MW1001EQDQ01+999990APOSP N01 00000JPWTH 0QNNE81 0 00201G21U0 99999H11 0 32250K21 0 00030L21 0 02000M11 0 29595N21 0 00000Q21 0 10239S21 0 00036V11 0 00101X21 0 21007
022972259003927199001101400E+32900-097033SAO  +0168DFW  V0202105N003652200059N024000599+00395+00005102435ADDAA101000095GA1999+076205005GD10005+9999999GF100005999999999999999999MA1999999100255EQDN01 00000JPWTH 0QNNE81 0 00000G21U0 99999H11 0 32250K21 0 00032L21 0 01500M11 0 29605N21 0 00000Q21 0 10243S21 0 00039V11 0 00000X21 0 21007
029972259003927199001101500C+32900-097033SAO  +0168DFW  V0201905N003152200059N0192005N1+00835+00115102495ADDAA101000095AG10000GA1999+076205005GF100005999001999999001991MA1102511100325MD1310141+9999MW1001REMAWY017FEW CI/ 314 1001?EQDQ01+999990APOSP Q02  00003PRCP99N01 00000JPWTH 0QNNE81 0 00000G21U0 99999H11 0 32250K21 0 00034L21 0 01200M11 0 29625N21 0 00000Q21 0 10249S21 0 00047V11 0 00000X21 0 19006
025872259003927199001101600C+32900-097033SAO  +0168DFW  V0201905N003152200059N0192005N1+01285+00065102535ADDAA101000095AG10999GA1999+076205025GD11015+0750093GF101005999999999999999999MA1102541100375MW1001EQDQ01+999990APOSP N01 00000JPWTH 0QNNE81 0 00101G21U0 99999H11 0 37250K21 0 00033L21 0 01200M11 0 29640N21 0 00000Q21 0 10253S21 0 00055V11 0 00100X21 0 19006
025872259003927199001101700C+32900-097033SAO  +0168DFW  V0201705N005252200059N0192005N1+01675-00065102515ADDAA101000095AG10999GA1999+076205025GD11015+0750093GF101005999999999999999999MA1102541100365MW1001EQDQ01+999990APOSP N01 00000JPWTH 0QNNE81 0 00101G21U0 99999H11 0 37250K21 0 00031L21 0 01200M11 0 29635N21 0 00000Q21 0 10251S21 0 00062V11 0 00100X21 0 17010
029672259003927199001101800C+32900-097033SY-SA+0168DFW  V0201905N008252200059N0240005N1+02005-00175102375ADDAA101000095AA206000091AG14000GF100005001001999999001991KA1120M+02061KA2240N+00221MA1102401100225MD1810101+9999REMSYN029333   10206 20022 555   91018AWY007810 36?EQDN01 00000JPWTH 0QNNE81 0 00099G21U0 99999K21 0 00029L21 0 01500M11 0 29595N21 0 00000Q21 0 10237S21 0 00068V11 0 00000X21 0 19016
025772259003927199001101900C+32900-097033SAO  +0168DFW  V0202005N008852200059N0240005N1+02175-00115102185ADDAA101000095AG10999GA1999+076205005GF100005999999999999999999MA1102201100035MW1001REMAWY005CI N?EQDQ01+999990APOSP N01 00000JPWTH 0QNNE81 0 00000G21U0 99999H11 0 32250K21 0 00030L21 0 01500M11 0 29540N21 0 00000Q21 0 10218S21 0 00071V11 0 00000X21 0 20017
026072259003927199001102000C+32900-097033SAO  +0168DFW  V0202005N008252200059N0320005N1+02285-00175102025ADDAA101000095AG10999GA1999+076205005GF100005999999999999999999MA1102071099885MW1001REMAWY008CI NW-N?EQDQ01+999990APOSP N01 00000JPWTH 0QNNE81 0 00000G21U0 99999H11 0 32250K21 0 00029L21 0 02000M11 0 29495N21 0 00000Q21 0 10202S21 0 00073V11 0 00000X21 0 20016
029972259003927199001102100C+32900-097033SAO  +0168DFW  V0202105N006752200059N0320005N1+02335-00225101995ADDAA101000095AG10000GA1999+076205005GF100005999001999999001991MA1102031099855MD1610371+9999MW1001REMAWY017FEW CI/ 637 1001?EQDQ01+999990APOSP Q02  00003PRCP99N01 00000JPWTH 0QNNE81 0 00000G21U0 99999H11 0 32250K21 0 00028L21 0 02000M11 0 29485N21 0 00000Q21 0 10199S21 0 00074V11 0 00000X21 0 21013
025772259003927199001102200C+32900-097033SAO  +0168DFW  V0202005N006752200059N0320005N1+02395-00225101955ADDAA101000095AG10999GA1999+076205005GF100005999999999999999999MA1102001099815MW1001REMAWY005CI W?EQDQ01+999990APOSP N01 00000JPWTH 0QNNE81 0 00000G21U0 99999H11 0 32250K21 0 00028L21 0 02000M11 0 29475N21 0 00000Q21 0 10195S21 0 00075V11 0 00000X21 0 20013
025872259003927199001102300C+32900-097033SAO  +0168DFW  V0201905N005752200059N0320005N1+02285-00115101975ADDAA101000095AG10999GA1999+076205005GD11015+0750093GF101005999999999999999999MA1102001099835MW1001EQDQ01+999990APOSP N01 00000JPWTH 0QNNE81 0 00101G21U0 99999H11 0 32250K21 0 00030L21 0 02000M11 0 29480N21 0 00000Q21 0 10197S21 0 00073V11 0 00100X21 0 19011
034972259003927199001110000C+32900-097033SY-SA+0168DFW  V0201805N005252200059N0240005N1+01785-00115101905ADDAA101000095AA206000091AG10000GA1999+076205005GD12015+0750099GF101015999001999999001991KA1120M+02391KA2180N+00221MA1101931099755MD1810101+9999MW1001REMSYN029333   10239 20022 555   91100AWY012810 1001 75?EQDN01 00000JPWTH 0QNNE81 0 00201G21U0 99999H11 0 32250K21 0 00030L21 0 01500M11 0 29455N21 0 00000Q21 0 10190S21 0 00064V11 0 00101X21 0 18010
025872259003927199001110100C+32900-097033SAO  +0168DFW  V0201805N005252200059N0320005N1+01445-00175101885ADDAA101000095AG10999GA1999+076205005GD12015+0750099GF101015999999999999999999MA1101901099715MW1001EQDQ01+999990APOSP N01 00000JPWTH 0QNNE81 0 00201G21U0 99999H11 0 32250K21 0 00029L21 0 02000M11 0 29445N21 0 00000Q21 0 10188S21 0 00058V11 0 00101X21 0 18010
025972259003927199001110200C+32900-097033SAO  +0168DFW  V0201805N005752200059N0320005N1+01335-00115101875ADDAA101000095AG10999GA1999+076205005GF100005999999999999999999MA1101901099715MW1001REMAWY007FEW CI?EQDQ01+999990APOSP N01 00000JPWTH 0QNNE81 0 00000G21U0 99999H11 0 32250K21 0 00030L21 0 02000M11 0 29445N21 0 00000Q21 0 10187S21 0 00056V11 0 00000X21 0 18011
030672259003927199001110300C+32900-097033SAO  +0168DFW  V0201905N004152200059N0320005N1+01285-00065101875ADDAA101000095AG10000GA1999+076205005GD11015+0750093GF101005999001999999001991MA1101901099715MD1610031+9999MW1001REMAWY009603 1001?EQDQ01+999990APOSP Q02  00003PRCP99N01 00000JPWTH 0QNNE81 0 00101G21U0 99999H11 0 32250K21 0 00031L21 0 02000M11 0 29445N21 0 00000Q21 0 10187S21 0 00055V11 0 00100X21 0 19008
